{"contracts/SubContract.sol":{"SubContract":{"abi":[{"inputs":[{"internalType":"string","name":"_name","type":"string"},{"internalType":"string","name":"_shiftStartTime","type":"string"},{"internalType":"string","name":"_shiftEndTime","type":"string"},{"internalType":"string","name":"_startDate","type":"string"},{"internalType":"string","name":"_endDate","type":"string"},{"internalType":"string","name":"_location","type":"string"},{"internalType":"address","name":"_NGOAddress","type":"address"}],"name":"addActivity","outputs":[],"stateMutability":"nonpayable","type":"function"},{"inputs":[{"internalType":"address","name":"_NGOAddress","type":"address"},{"internalType":"uint128","name":"_eventID","type":"uint128"},{"internalType":"address","name":"_volunteerAddress","type":"address"}],"name":"addVolunteersToAnEventIDForANGO","outputs":[],"stateMutability":"nonpayable","type":"function"},{"inputs":[{"internalType":"address","name":"_NGOAddress","type":"address"}],"name":"getActivities","outputs":[{"components":[{"internalType":"string","name":"name","type":"string"},{"internalType":"string","name":"location","type":"string"},{"internalType":"string[]","name":"eventName","type":"string[]"},{"internalType":"string[]","name":"eventLocation","type":"string[]"},{"internalType":"string[]","name":"shiftStartTime","type":"string[]"},{"internalType":"string[]","name":"shiftEndTime","type":"string[]"},{"internalType":"string[]","name":"startDate","type":"string[]"},{"internalType":"string[]","name":"endDate","type":"string[]"},{"internalType":"uint128","name":"lastEventCounter","type":"uint128"}],"internalType":"struct SubContract.NGODetails","name":"","type":"tuple"}],"stateMutability":"view","type":"function"},{"inputs":[{"internalType":"uint128","name":"_eventID","type":"uint128"},{"internalType":"address","name":"_NGOAddress","type":"address"}],"name":"getCompleteInformationOnAnEventUserRegisteredFor","outputs":[{"components":[{"internalType":"string","name":"eventName","type":"string"},{"internalType":"string","name":"eventLocation","type":"string"},{"internalType":"string","name":"shiftStartTime","type":"string"},{"internalType":"string","name":"shiftEndTime","type":"string"},{"internalType":"string","name":"startDate","type":"string"},{"internalType":"string","name":"endDate","type":"string"}],"internalType":"struct SubContract.eventDetails","name":"","type":"tuple"}],"stateMutability":"view","type":"function"},{"inputs":[{"internalType":"address","name":"","type":"address"}],"name":"listOfNGOs","outputs":[{"internalType":"string","name":"name","type":"string"},{"internalType":"string","name":"location","type":"string"},{"internalType":"uint128","name":"lastEventCounter","type":"uint128"}],"stateMutability":"view","type":"function"},{"inputs":[{"internalType":"string","name":"_name","type":"string"},{"internalType":"string","name":"_location","type":"string"},{"internalType":"address","name":"_NGOAddress","type":"address"},{"internalType":"string[]","name":"_temporary","type":"string[]"}],"name":"setNGOToContract","outputs":[],"stateMutability":"nonpayable","type":"function"}],"evm":{"bytecode":{"linkReferences":{},"object":"608060405234801561001057600080fd5b50612705806100206000396000f3fe608060405234801561001057600080fd5b50600436106100625760003560e01c806307b32c1c1461006757806354f32d3e146100975780638eb5b0d3146100b3578063900dd950146100e5578063bfee2dfa14610101578063f64e4a7014610131575b600080fd5b610081600480360381019061007c9190611a80565b61014d565b60405161008e9190611bfc565b60405180910390f35b6100b160048036038101906100ac9190611c1e565b610984565b005b6100cd60048036038101906100c89190611c71565b610a5e565b6040516100dc93929190611cf7565b60405180910390f35b6100ff60048036038101906100fa9190611f57565b610bb4565b005b61011b60048036038101906101169190611c71565b610d69565b60405161012891906121d9565b60405180910390f35b61014b600480360381019061014691906121fb565b611447565b005b610155611858565b6000600260008473ffffffffffffffffffffffffffffffffffffffff1673ffffffffffffffffffffffffffffffffffffffff168152602001908152602001600020604051806101200160405290816000820180546101b290612374565b80601f01602080910402602001604051908101604052809291908181526020018280546101de90612374565b801561022b5780601f106102005761010080835404028352916020019161022b565b820191906000526020600020905b81548152906001019060200180831161020e57829003601f168201915b5050505050815260200160018201805461024490612374565b80601f016020809104026020016040519081016040528092919081815260200182805461027090612374565b80156102bd5780601f10610292576101008083540402835291602001916102bd565b820191906000526020600020905b8154815290600101906020018083116102a057829003601f168201915b5050505050815260200160028201805480602002602001604051908101604052809291908181526020016000905b8282101561039757838290600052602060002001805461030a90612374565b80601f016020809104026020016040519081016040528092919081815260200182805461033690612374565b80156103835780601f1061035857610100808354040283529160200191610383565b820191906000526020600020905b81548152906001019060200180831161036657829003601f168201915b5050505050815260200190600101906102eb565b50505050815260200160038201805480602002602001604051908101604052809291908181526020016000905b828210156104705783829060005260206000200180546103e390612374565b80601f016020809104026020016040519081016040528092919081815260200182805461040f90612374565b801561045c5780601f106104315761010080835404028352916020019161045c565b820191906000526020600020905b81548152906001019060200180831161043f57829003601f168201915b5050505050815260200190600101906103c4565b50505050815260200160048201805480602002602001604051908101604052809291908181526020016000905b828210156105495783829060005260206000200180546104bc90612374565b80601f01602080910402602001604051908101604052809291908181526020018280546104e890612374565b80156105355780601f1061050a57610100808354040283529160200191610535565b820191906000526020600020905b81548152906001019060200180831161051857829003601f168201915b50505050508152602001906001019061049d565b50505050815260200160058201805480602002602001604051908101604052809291908181526020016000905b8282101561062257838290600052602060002001805461059590612374565b80601f01602080910402602001604051908101604052809291908181526020018280546105c190612374565b801561060e5780601f106105e35761010080835404028352916020019161060e565b820191906000526020600020905b8154815290600101906020018083116105f157829003601f168201915b505050505081526020019060010190610576565b50505050815260200160068201805480602002602001604051908101604052809291908181526020016000905b828210156106fb57838290600052602060002001805461066e90612374565b80601f016020809104026020016040519081016040528092919081815260200182805461069a90612374565b80156106e75780601f106106bc576101008083540402835291602001916106e7565b820191906000526020600020905b8154815290600101906020018083116106ca57829003601f168201915b50505050508152602001906001019061064f565b50505050815260200160078201805480602002602001604051908101604052809291908181526020016000905b828210156107d457838290600052602060002001805461074790612374565b80601f016020809104026020016040519081016040528092919081815260200182805461077390612374565b80156107c05780601f10610795576101008083540402835291602001916107c0565b820191906000526020600020905b8154815290600101906020018083116107a357829003601f168201915b505050505081526020019060010190610728565b5050505081526020016008820160009054906101000a90046fffffffffffffffffffffffffffffffff166fffffffffffffffffffffffffffffffff166fffffffffffffffffffffffffffffffff1681525050905060006040518060c001604052808360400151876fffffffffffffffffffffffffffffffff168151811061085e5761085d6123a5565b5b602002602001015181526020018360600151876fffffffffffffffffffffffffffffffff1681518110610894576108936123a5565b5b602002602001015181526020018360800151876fffffffffffffffffffffffffffffffff16815181106108ca576108c96123a5565b5b602002602001015181526020018360a00151876fffffffffffffffffffffffffffffffff1681518110610900576108ff6123a5565b5b602002602001015181526020018360c00151876fffffffffffffffffffffffffffffffff1681518110610936576109356123a5565b5b602002602001015181526020018360e00151876fffffffffffffffffffffffffffffffff168151811061096c5761096b6123a5565b5b60200260200101518152509050809250505092915050565b600160008473ffffffffffffffffffffffffffffffffffffffff1673ffffffffffffffffffffffffffffffffffffffff1681526020019081526020016000206000836fffffffffffffffffffffffffffffffff166fffffffffffffffffffffffffffffffff168152602001908152602001600020819080600181540180825580915050600190039060005260206000200160009091909190916101000a81548173ffffffffffffffffffffffffffffffffffffffff021916908373ffffffffffffffffffffffffffffffffffffffff160217905550505050565b6002602052806000526040600020600091509050806000018054610a8190612374565b80601f0160208091040260200160405190810160405280929190818152602001828054610aad90612374565b8015610afa5780601f10610acf57610100808354040283529160200191610afa565b820191906000526020600020905b815481529060010190602001808311610add57829003601f168201915b505050505090806001018054610b0f90612374565b80601f0160208091040260200160405190810160405280929190818152602001828054610b3b90612374565b8015610b885780601f10610b5d57610100808354040283529160200191610b88565b820191906000526020600020905b815481529060010190602001808311610b6b57829003601f168201915b5050505050908060080160009054906101000a90046fffffffffffffffffffffffffffffffff16905083565b60405180610120016040528085815260200184815260200182815260200182815260200182815260200182815260200182815260200182815260200160006fffffffffffffffffffffffffffffffff16815250600260008473ffffffffffffffffffffffffffffffffffffffff1673ffffffffffffffffffffffffffffffffffffffff1681526020019081526020016000206000820151816000019081610c5b919061258a565b506020820151816001019081610c71919061258a565b506040820151816002019080519060200190610c8e92919061188e565b506060820151816003019080519060200190610cab92919061188e565b506080820151816004019080519060200190610cc892919061188e565b5060a0820151816005019080519060200190610ce592919061188e565b5060c0820151816006019080519060200190610d0292919061188e565b5060e0820151816007019080519060200190610d1f92919061188e565b506101008201518160080160006101000a8154816fffffffffffffffffffffffffffffffff02191690836fffffffffffffffffffffffffffffffff16021790555090505050505050565b610d716118e7565b600260008373ffffffffffffffffffffffffffffffffffffffff1673ffffffffffffffffffffffffffffffffffffffff16815260200190815260200160002060405180610120016040529081600082018054610dcc90612374565b80601f0160208091040260200160405190810160405280929190818152602001828054610df890612374565b8015610e455780601f10610e1a57610100808354040283529160200191610e45565b820191906000526020600020905b815481529060010190602001808311610e2857829003601f168201915b50505050508152602001600182018054610e5e90612374565b80601f0160208091040260200160405190810160405280929190818152602001828054610e8a90612374565b8015610ed75780601f10610eac57610100808354040283529160200191610ed7565b820191906000526020600020905b815481529060010190602001808311610eba57829003601f168201915b5050505050815260200160028201805480602002602001604051908101604052809291908181526020016000905b82821015610fb1578382906000526020600020018054610f2490612374565b80601f0160208091040260200160405190810160405280929190818152602001828054610f5090612374565b8015610f9d5780601f10610f7257610100808354040283529160200191610f9d565b820191906000526020600020905b815481529060010190602001808311610f8057829003601f168201915b505050505081526020019060010190610f05565b50505050815260200160038201805480602002602001604051908101604052809291908181526020016000905b8282101561108a578382906000526020600020018054610ffd90612374565b80601f016020809104026020016040519081016040528092919081815260200182805461102990612374565b80156110765780601f1061104b57610100808354040283529160200191611076565b820191906000526020600020905b81548152906001019060200180831161105957829003601f168201915b505050505081526020019060010190610fde565b50505050815260200160048201805480602002602001604051908101604052809291908181526020016000905b828210156111635783829060005260206000200180546110d690612374565b80601f016020809104026020016040519081016040528092919081815260200182805461110290612374565b801561114f5780601f106111245761010080835404028352916020019161114f565b820191906000526020600020905b81548152906001019060200180831161113257829003601f168201915b5050505050815260200190600101906110b7565b50505050815260200160058201805480602002602001604051908101604052809291908181526020016000905b8282101561123c5783829060005260206000200180546111af90612374565b80601f01602080910402602001604051908101604052809291908181526020018280546111db90612374565b80156112285780601f106111fd57610100808354040283529160200191611228565b820191906000526020600020905b81548152906001019060200180831161120b57829003601f168201915b505050505081526020019060010190611190565b50505050815260200160068201805480602002602001604051908101604052809291908181526020016000905b8282101561131557838290600052602060002001805461128890612374565b80601f01602080910402602001604051908101604052809291908181526020018280546112b490612374565b80156113015780601f106112d657610100808354040283529160200191611301565b820191906000526020600020905b8154815290600101906020018083116112e457829003601f168201915b505050505081526020019060010190611269565b50505050815260200160078201805480602002602001604051908101604052809291908181526020016000905b828210156113ee57838290600052602060002001805461136190612374565b80601f016020809104026020016040519081016040528092919081815260200182805461138d90612374565b80156113da5780601f106113af576101008083540402835291602001916113da565b820191906000526020600020905b8154815290600101906020018083116113bd57829003601f168201915b505050505081526020019060010190611342565b5050505081526020016008820160009054906101000a90046fffffffffffffffffffffffffffffffff166fffffffffffffffffffffffffffffffff166fffffffffffffffffffffffffffffffff16815250509050919050565b6000600260008373ffffffffffffffffffffffffffffffffffffffff1673ffffffffffffffffffffffffffffffffffffffff16815260200190815260200160002060080160009054906101000a90046fffffffffffffffffffffffffffffffff16905087600260008473ffffffffffffffffffffffffffffffffffffffff1673ffffffffffffffffffffffffffffffffffffffff168152602001908152602001600020600201826fffffffffffffffffffffffffffffffff1681548110611511576115106123a5565b5b906000526020600020019081611527919061258a565b5082600260008473ffffffffffffffffffffffffffffffffffffffff1673ffffffffffffffffffffffffffffffffffffffff168152602001908152602001600020600301826fffffffffffffffffffffffffffffffff168154811061158f5761158e6123a5565b5b9060005260206000200190816115a5919061258a565b5086600260008473ffffffffffffffffffffffffffffffffffffffff1673ffffffffffffffffffffffffffffffffffffffff168152602001908152602001600020600401826fffffffffffffffffffffffffffffffff168154811061160d5761160c6123a5565b5b906000526020600020019081611623919061258a565b5085600260008473ffffffffffffffffffffffffffffffffffffffff1673ffffffffffffffffffffffffffffffffffffffff168152602001908152602001600020600501826fffffffffffffffffffffffffffffffff168154811061168b5761168a6123a5565b5b9060005260206000200190816116a1919061258a565b5084600260008473ffffffffffffffffffffffffffffffffffffffff1673ffffffffffffffffffffffffffffffffffffffff168152602001908152602001600020600601826fffffffffffffffffffffffffffffffff1681548110611709576117086123a5565b5b90600052602060002001908161171f919061258a565b5083600260008473ffffffffffffffffffffffffffffffffffffffff1673ffffffffffffffffffffffffffffffffffffffff168152602001908152602001600020600701826fffffffffffffffffffffffffffffffff1681548110611787576117866123a5565b5b90600052602060002001908161179d919061258a565b506117a7826117b1565b5050505050505050565b6001600260008373ffffffffffffffffffffffffffffffffffffffff1673ffffffffffffffffffffffffffffffffffffffff16815260200190815260200160002060080160008282829054906101000a90046fffffffffffffffffffffffffffffffff1661181f919061268b565b92506101000a8154816fffffffffffffffffffffffffffffffff02191690836fffffffffffffffffffffffffffffffff16021790555050565b6040518060c001604052806060815260200160608152602001606081526020016060815260200160608152602001606081525090565b8280548282559060005260206000209081019282156118d6579160200282015b828111156118d55782518290816118c5919061258a565b50916020019190600101906118ae565b5b5090506118e39190611945565b5090565b604051806101200160405280606081526020016060815260200160608152602001606081526020016060815260200160608152602001606081526020016060815260200160006fffffffffffffffffffffffffffffffff1681525090565b5b80821115611965576000818161195c9190611969565b50600101611946565b5090565b50805461197590612374565b6000825580601f1061198757506119a6565b601f0160209004906000526020600020908101906119a591906119a9565b5b50565b5b808211156119c25760008160009055506001016119aa565b5090565b6000604051905090565b600080fd5b600080fd5b60006fffffffffffffffffffffffffffffffff82169050919050565b6119ff816119da565b8114611a0a57600080fd5b50565b600081359050611a1c816119f6565b92915050565b600073ffffffffffffffffffffffffffffffffffffffff82169050919050565b6000611a4d82611a22565b9050919050565b611a5d81611a42565b8114611a6857600080fd5b50565b600081359050611a7a81611a54565b92915050565b60008060408385031215611a9757611a966119d0565b5b6000611aa585828601611a0d565b9250506020611ab685828601611a6b565b9150509250929050565b600081519050919050565b600082825260208201905092915050565b60005b83811015611afa578082015181840152602081019050611adf565b60008484015250505050565b6000601f19601f8301169050919050565b6000611b2282611ac0565b611b2c8185611acb565b9350611b3c818560208601611adc565b611b4581611b06565b840191505092915050565b600060c0830160008301518482036000860152611b6d8282611b17565b91505060208301518482036020860152611b878282611b17565b91505060408301518482036040860152611ba18282611b17565b91505060608301518482036060860152611bbb8282611b17565b91505060808301518482036080860152611bd58282611b17565b91505060a083015184820360a0860152611bef8282611b17565b9150508091505092915050565b60006020820190508181036000830152611c168184611b50565b905092915050565b600080600060608486031215611c3757611c366119d0565b5b6000611c4586828701611a6b565b9350506020611c5686828701611a0d565b9250506040611c6786828701611a6b565b9150509250925092565b600060208284031215611c8757611c866119d0565b5b6000611c9584828501611a6b565b91505092915050565b600082825260208201905092915050565b6000611cba82611ac0565b611cc48185611c9e565b9350611cd4818560208601611adc565b611cdd81611b06565b840191505092915050565b611cf1816119da565b82525050565b60006060820190508181036000830152611d118186611caf565b90508181036020830152611d258185611caf565b9050611d346040830184611ce8565b949350505050565b600080fd5b600080fd5b7f4e487b7100000000000000000000000000000000000000000000000000000000600052604160045260246000fd5b611d7e82611b06565b810181811067ffffffffffffffff82111715611d9d57611d9c611d46565b5b80604052505050565b6000611db06119c6565b9050611dbc8282611d75565b919050565b600067ffffffffffffffff821115611ddc57611ddb611d46565b5b611de582611b06565b9050602081019050919050565b82818337600083830152505050565b6000611e14611e0f84611dc1565b611da6565b905082815260208101848484011115611e3057611e2f611d41565b5b611e3b848285611df2565b509392505050565b600082601f830112611e5857611e57611d3c565b5b8135611e68848260208601611e01565b91505092915050565b600067ffffffffffffffff821115611e8c57611e8b611d46565b5b602082029050602081019050919050565b600080fd5b6000611eb5611eb084611e71565b611da6565b90508083825260208201905060208402830185811115611ed857611ed7611e9d565b5b835b81811015611f1f57803567ffffffffffffffff811115611efd57611efc611d3c565b5b808601611f0a8982611e43565b85526020850194505050602081019050611eda565b5050509392505050565b600082601f830112611f3e57611f3d611d3c565b5b8135611f4e848260208601611ea2565b91505092915050565b60008060008060808587031215611f7157611f706119d0565b5b600085013567ffffffffffffffff811115611f8f57611f8e6119d5565b5b611f9b87828801611e43565b945050602085013567ffffffffffffffff811115611fbc57611fbb6119d5565b5b611fc887828801611e43565b9350506040611fd987828801611a6b565b925050606085013567ffffffffffffffff811115611ffa57611ff96119d5565b5b61200687828801611f29565b91505092959194509250565b600081519050919050565b600082825260208201905092915050565b6000819050602082019050919050565b600061204a8383611b17565b905092915050565b6000602082019050919050565b600061206a82612012565b612074818561201d565b9350836020820285016120868561202e565b8060005b858110156120c257848403895281516120a3858261203e565b94506120ae83612052565b925060208a0199505060018101905061208a565b50829750879550505050505092915050565b6120dd816119da565b82525050565b60006101208301600083015184820360008601526121018282611b17565b9150506020830151848203602086015261211b8282611b17565b91505060408301518482036040860152612135828261205f565b9150506060830151848203606086015261214f828261205f565b91505060808301518482036080860152612169828261205f565b91505060a083015184820360a0860152612183828261205f565b91505060c083015184820360c086015261219d828261205f565b91505060e083015184820360e08601526121b7828261205f565b9150506101008301516121ce6101008601826120d4565b508091505092915050565b600060208201905081810360008301526121f381846120e3565b905092915050565b600080600080600080600060e0888a03121561221a576122196119d0565b5b600088013567ffffffffffffffff811115612238576122376119d5565b5b6122448a828b01611e43565b975050602088013567ffffffffffffffff811115612265576122646119d5565b5b6122718a828b01611e43565b965050604088013567ffffffffffffffff811115612292576122916119d5565b5b61229e8a828b01611e43565b955050606088013567ffffffffffffffff8111156122bf576122be6119d5565b5b6122cb8a828b01611e43565b945050608088013567ffffffffffffffff8111156122ec576122eb6119d5565b5b6122f88a828b01611e43565b93505060a088013567ffffffffffffffff811115612319576123186119d5565b5b6123258a828b01611e43565b92505060c06123368a828b01611a6b565b91505092959891949750929550565b7f4e487b7100000000000000000000000000000000000000000000000000000000600052602260045260246000fd5b6000600282049050600182168061238c57607f821691505b60208210810361239f5761239e612345565b5b50919050565b7f4e487b7100000000000000000000000000000000000000000000000000000000600052603260045260246000fd5b60008190508160005260206000209050919050565b60006020601f8301049050919050565b600082821b905092915050565b6000600883026124367fffffffffffffffffffffffffffffffffffffffffffffffffffffffffffffffff826123f9565b61244086836123f9565b95508019841693508086168417925050509392505050565b6000819050919050565b6000819050919050565b600061248761248261247d84612458565b612462565b612458565b9050919050565b6000819050919050565b6124a18361246c565b6124b56124ad8261248e565b848454612406565b825550505050565b600090565b6124ca6124bd565b6124d5818484612498565b505050565b5b818110156124f9576124ee6000826124c2565b6001810190506124db565b5050565b601f82111561253e5761250f816123d4565b612518846123e9565b81016020851015612527578190505b61253b612533856123e9565b8301826124da565b50505b505050565b600082821c905092915050565b600061256160001984600802612543565b1980831691505092915050565b600061257a8383612550565b9150826002028217905092915050565b61259382611ac0565b67ffffffffffffffff8111156125ac576125ab611d46565b5b6125b68254612374565b6125c18282856124fd565b600060209050601f8311600181146125f457600084156125e2578287015190505b6125ec858261256e565b865550612654565b601f198416612602866123d4565b60005b8281101561262a57848901518255600182019150602085019450602081019050612605565b868310156126475784890151612643601f891682612550565b8355505b6001600288020188555050505b505050505050565b7f4e487b7100000000000000000000000000000000000000000000000000000000600052601160045260246000fd5b6000612696826119da565b91506126a1836119da565b925082820190506fffffffffffffffffffffffffffffffff8111156126c9576126c861265c565b5b9291505056fea2646970667358221220a16bc8b323cdacd030be49b6b2392f8f4140cd1602ad5e75d34bbeea5211ebe764736f6c63430008120033","opcodes":"PUSH1 0x80 PUSH1 0x40 MSTORE CALLVALUE DUP1 ISZERO PUSH2 0x10 JUMPI PUSH1 0x0 DUP1 REVERT JUMPDEST POP PUSH2 0x2705 DUP1 PUSH2 0x20 PUSH1 0x0 CODECOPY PUSH1 0x0 RETURN INVALID PUSH1 0x80 PUSH1 0x40 MSTORE CALLVALUE DUP1 ISZERO PUSH2 0x10 JUMPI PUSH1 0x0 DUP1 REVERT JUMPDEST POP PUSH1 0x4 CALLDATASIZE LT PUSH2 0x62 JUMPI PUSH1 0x0 CALLDATALOAD PUSH1 0xE0 SHR DUP1 PUSH4 0x7B32C1C EQ PUSH2 0x67 JUMPI DUP1 PUSH4 0x54F32D3E EQ PUSH2 0x97 JUMPI DUP1 PUSH4 0x8EB5B0D3 EQ PUSH2 0xB3 JUMPI DUP1 PUSH4 0x900DD950 EQ PUSH2 0xE5 JUMPI DUP1 PUSH4 0xBFEE2DFA EQ PUSH2 0x101 JUMPI DUP1 PUSH4 0xF64E4A70 EQ PUSH2 0x131 JUMPI JUMPDEST PUSH1 0x0 DUP1 REVERT JUMPDEST PUSH2 0x81 PUSH1 0x4 DUP1 CALLDATASIZE SUB DUP2 ADD SWAP1 PUSH2 0x7C SWAP2 SWAP1 PUSH2 0x1A80 JUMP JUMPDEST PUSH2 0x14D JUMP JUMPDEST PUSH1 0x40 MLOAD PUSH2 0x8E SWAP2 SWAP1 PUSH2 0x1BFC JUMP JUMPDEST PUSH1 0x40 MLOAD DUP1 SWAP2 SUB SWAP1 RETURN JUMPDEST PUSH2 0xB1 PUSH1 0x4 DUP1 CALLDATASIZE SUB DUP2 ADD SWAP1 PUSH2 0xAC SWAP2 SWAP1 PUSH2 0x1C1E JUMP JUMPDEST PUSH2 0x984 JUMP JUMPDEST STOP JUMPDEST PUSH2 0xCD PUSH1 0x4 DUP1 CALLDATASIZE SUB DUP2 ADD SWAP1 PUSH2 0xC8 SWAP2 SWAP1 PUSH2 0x1C71 JUMP JUMPDEST PUSH2 0xA5E JUMP JUMPDEST PUSH1 0x40 MLOAD PUSH2 0xDC SWAP4 SWAP3 SWAP2 SWAP1 PUSH2 0x1CF7 JUMP JUMPDEST PUSH1 0x40 MLOAD DUP1 SWAP2 SUB SWAP1 RETURN JUMPDEST PUSH2 0xFF PUSH1 0x4 DUP1 CALLDATASIZE SUB DUP2 ADD SWAP1 PUSH2 0xFA SWAP2 SWAP1 PUSH2 0x1F57 JUMP JUMPDEST PUSH2 0xBB4 JUMP JUMPDEST STOP JUMPDEST PUSH2 0x11B PUSH1 0x4 DUP1 CALLDATASIZE SUB DUP2 ADD SWAP1 PUSH2 0x116 SWAP2 SWAP1 PUSH2 0x1C71 JUMP JUMPDEST PUSH2 0xD69 JUMP JUMPDEST PUSH1 0x40 MLOAD PUSH2 0x128 SWAP2 SWAP1 PUSH2 0x21D9 JUMP JUMPDEST PUSH1 0x40 MLOAD DUP1 SWAP2 SUB SWAP1 RETURN JUMPDEST PUSH2 0x14B PUSH1 0x4 DUP1 CALLDATASIZE SUB DUP2 ADD SWAP1 PUSH2 0x146 SWAP2 SWAP1 PUSH2 0x21FB JUMP JUMPDEST PUSH2 0x1447 JUMP JUMPDEST STOP JUMPDEST PUSH2 0x155 PUSH2 0x1858 JUMP JUMPDEST PUSH1 0x0 PUSH1 0x2 PUSH1 0x0 DUP5 PUSH20 0xFFFFFFFFFFFFFFFFFFFFFFFFFFFFFFFFFFFFFFFF AND PUSH20 0xFFFFFFFFFFFFFFFFFFFFFFFFFFFFFFFFFFFFFFFF AND DUP2 MSTORE PUSH1 0x20 ADD SWAP1 DUP2 MSTORE PUSH1 0x20 ADD PUSH1 0x0 KECCAK256 PUSH1 0x40 MLOAD DUP1 PUSH2 0x120 ADD PUSH1 0x40 MSTORE SWAP1 DUP2 PUSH1 0x0 DUP3 ADD DUP1 SLOAD PUSH2 0x1B2 SWAP1 PUSH2 0x2374 JUMP JUMPDEST DUP1 PUSH1 0x1F ADD PUSH1 0x20 DUP1 SWAP2 DIV MUL PUSH1 0x20 ADD PUSH1 0x40 MLOAD SWAP1 DUP2 ADD PUSH1 0x40 MSTORE DUP1 SWAP3 SWAP2 SWAP1 DUP2 DUP2 MSTORE PUSH1 0x20 ADD DUP3 DUP1 SLOAD PUSH2 0x1DE SWAP1 PUSH2 0x2374 JUMP JUMPDEST DUP1 ISZERO PUSH2 0x22B JUMPI DUP1 PUSH1 0x1F LT PUSH2 0x200 JUMPI PUSH2 0x100 DUP1 DUP4 SLOAD DIV MUL DUP4 MSTORE SWAP2 PUSH1 0x20 ADD SWAP2 PUSH2 0x22B JUMP JUMPDEST DUP3 ADD SWAP2 SWAP1 PUSH1 0x0 MSTORE PUSH1 0x20 PUSH1 0x0 KECCAK256 SWAP1 JUMPDEST DUP2 SLOAD DUP2 MSTORE SWAP1 PUSH1 0x1 ADD SWAP1 PUSH1 0x20 ADD DUP1 DUP4 GT PUSH2 0x20E JUMPI DUP3 SWAP1 SUB PUSH1 0x1F AND DUP3 ADD SWAP2 JUMPDEST POP POP POP POP POP DUP2 MSTORE PUSH1 0x20 ADD PUSH1 0x1 DUP3 ADD DUP1 SLOAD PUSH2 0x244 SWAP1 PUSH2 0x2374 JUMP JUMPDEST DUP1 PUSH1 0x1F ADD PUSH1 0x20 DUP1 SWAP2 DIV MUL PUSH1 0x20 ADD PUSH1 0x40 MLOAD SWAP1 DUP2 ADD PUSH1 0x40 MSTORE DUP1 SWAP3 SWAP2 SWAP1 DUP2 DUP2 MSTORE PUSH1 0x20 ADD DUP3 DUP1 SLOAD PUSH2 0x270 SWAP1 PUSH2 0x2374 JUMP JUMPDEST DUP1 ISZERO PUSH2 0x2BD JUMPI DUP1 PUSH1 0x1F LT PUSH2 0x292 JUMPI PUSH2 0x100 DUP1 DUP4 SLOAD DIV MUL DUP4 MSTORE SWAP2 PUSH1 0x20 ADD SWAP2 PUSH2 0x2BD JUMP JUMPDEST DUP3 ADD SWAP2 SWAP1 PUSH1 0x0 MSTORE PUSH1 0x20 PUSH1 0x0 KECCAK256 SWAP1 JUMPDEST DUP2 SLOAD DUP2 MSTORE SWAP1 PUSH1 0x1 ADD SWAP1 PUSH1 0x20 ADD DUP1 DUP4 GT PUSH2 0x2A0 JUMPI DUP3 SWAP1 SUB PUSH1 0x1F AND DUP3 ADD SWAP2 JUMPDEST POP POP POP POP POP DUP2 MSTORE PUSH1 0x20 ADD PUSH1 0x2 DUP3 ADD DUP1 SLOAD DUP1 PUSH1 0x20 MUL PUSH1 0x20 ADD PUSH1 0x40 MLOAD SWAP1 DUP2 ADD PUSH1 0x40 MSTORE DUP1 SWAP3 SWAP2 SWAP1 DUP2 DUP2 MSTORE PUSH1 0x20 ADD PUSH1 0x0 SWAP1 JUMPDEST DUP3 DUP3 LT ISZERO PUSH2 0x397 JUMPI DUP4 DUP3 SWAP1 PUSH1 0x0 MSTORE PUSH1 0x20 PUSH1 0x0 KECCAK256 ADD DUP1 SLOAD PUSH2 0x30A SWAP1 PUSH2 0x2374 JUMP JUMPDEST DUP1 PUSH1 0x1F ADD PUSH1 0x20 DUP1 SWAP2 DIV MUL PUSH1 0x20 ADD PUSH1 0x40 MLOAD SWAP1 DUP2 ADD PUSH1 0x40 MSTORE DUP1 SWAP3 SWAP2 SWAP1 DUP2 DUP2 MSTORE PUSH1 0x20 ADD DUP3 DUP1 SLOAD PUSH2 0x336 SWAP1 PUSH2 0x2374 JUMP JUMPDEST DUP1 ISZERO PUSH2 0x383 JUMPI DUP1 PUSH1 0x1F LT PUSH2 0x358 JUMPI PUSH2 0x100 DUP1 DUP4 SLOAD DIV MUL DUP4 MSTORE SWAP2 PUSH1 0x20 ADD SWAP2 PUSH2 0x383 JUMP JUMPDEST DUP3 ADD SWAP2 SWAP1 PUSH1 0x0 MSTORE PUSH1 0x20 PUSH1 0x0 KECCAK256 SWAP1 JUMPDEST DUP2 SLOAD DUP2 MSTORE SWAP1 PUSH1 0x1 ADD SWAP1 PUSH1 0x20 ADD DUP1 DUP4 GT PUSH2 0x366 JUMPI DUP3 SWAP1 SUB PUSH1 0x1F AND DUP3 ADD SWAP2 JUMPDEST POP POP POP POP POP DUP2 MSTORE PUSH1 0x20 ADD SWAP1 PUSH1 0x1 ADD SWAP1 PUSH2 0x2EB JUMP JUMPDEST POP POP POP POP DUP2 MSTORE PUSH1 0x20 ADD PUSH1 0x3 DUP3 ADD DUP1 SLOAD DUP1 PUSH1 0x20 MUL PUSH1 0x20 ADD PUSH1 0x40 MLOAD SWAP1 DUP2 ADD PUSH1 0x40 MSTORE DUP1 SWAP3 SWAP2 SWAP1 DUP2 DUP2 MSTORE PUSH1 0x20 ADD PUSH1 0x0 SWAP1 JUMPDEST DUP3 DUP3 LT ISZERO PUSH2 0x470 JUMPI DUP4 DUP3 SWAP1 PUSH1 0x0 MSTORE PUSH1 0x20 PUSH1 0x0 KECCAK256 ADD DUP1 SLOAD PUSH2 0x3E3 SWAP1 PUSH2 0x2374 JUMP JUMPDEST DUP1 PUSH1 0x1F ADD PUSH1 0x20 DUP1 SWAP2 DIV MUL PUSH1 0x20 ADD PUSH1 0x40 MLOAD SWAP1 DUP2 ADD PUSH1 0x40 MSTORE DUP1 SWAP3 SWAP2 SWAP1 DUP2 DUP2 MSTORE PUSH1 0x20 ADD DUP3 DUP1 SLOAD PUSH2 0x40F SWAP1 PUSH2 0x2374 JUMP JUMPDEST DUP1 ISZERO PUSH2 0x45C JUMPI DUP1 PUSH1 0x1F LT PUSH2 0x431 JUMPI PUSH2 0x100 DUP1 DUP4 SLOAD DIV MUL DUP4 MSTORE SWAP2 PUSH1 0x20 ADD SWAP2 PUSH2 0x45C JUMP JUMPDEST DUP3 ADD SWAP2 SWAP1 PUSH1 0x0 MSTORE PUSH1 0x20 PUSH1 0x0 KECCAK256 SWAP1 JUMPDEST DUP2 SLOAD DUP2 MSTORE SWAP1 PUSH1 0x1 ADD SWAP1 PUSH1 0x20 ADD DUP1 DUP4 GT PUSH2 0x43F JUMPI DUP3 SWAP1 SUB PUSH1 0x1F AND DUP3 ADD SWAP2 JUMPDEST POP POP POP POP POP DUP2 MSTORE PUSH1 0x20 ADD SWAP1 PUSH1 0x1 ADD SWAP1 PUSH2 0x3C4 JUMP JUMPDEST POP POP POP POP DUP2 MSTORE PUSH1 0x20 ADD PUSH1 0x4 DUP3 ADD DUP1 SLOAD DUP1 PUSH1 0x20 MUL PUSH1 0x20 ADD PUSH1 0x40 MLOAD SWAP1 DUP2 ADD PUSH1 0x40 MSTORE DUP1 SWAP3 SWAP2 SWAP1 DUP2 DUP2 MSTORE PUSH1 0x20 ADD PUSH1 0x0 SWAP1 JUMPDEST DUP3 DUP3 LT ISZERO PUSH2 0x549 JUMPI DUP4 DUP3 SWAP1 PUSH1 0x0 MSTORE PUSH1 0x20 PUSH1 0x0 KECCAK256 ADD DUP1 SLOAD PUSH2 0x4BC SWAP1 PUSH2 0x2374 JUMP JUMPDEST DUP1 PUSH1 0x1F ADD PUSH1 0x20 DUP1 SWAP2 DIV MUL PUSH1 0x20 ADD PUSH1 0x40 MLOAD SWAP1 DUP2 ADD PUSH1 0x40 MSTORE DUP1 SWAP3 SWAP2 SWAP1 DUP2 DUP2 MSTORE PUSH1 0x20 ADD DUP3 DUP1 SLOAD PUSH2 0x4E8 SWAP1 PUSH2 0x2374 JUMP JUMPDEST DUP1 ISZERO PUSH2 0x535 JUMPI DUP1 PUSH1 0x1F LT PUSH2 0x50A JUMPI PUSH2 0x100 DUP1 DUP4 SLOAD DIV MUL DUP4 MSTORE SWAP2 PUSH1 0x20 ADD SWAP2 PUSH2 0x535 JUMP JUMPDEST DUP3 ADD SWAP2 SWAP1 PUSH1 0x0 MSTORE PUSH1 0x20 PUSH1 0x0 KECCAK256 SWAP1 JUMPDEST DUP2 SLOAD DUP2 MSTORE SWAP1 PUSH1 0x1 ADD SWAP1 PUSH1 0x20 ADD DUP1 DUP4 GT PUSH2 0x518 JUMPI DUP3 SWAP1 SUB PUSH1 0x1F AND DUP3 ADD SWAP2 JUMPDEST POP POP POP POP POP DUP2 MSTORE PUSH1 0x20 ADD SWAP1 PUSH1 0x1 ADD SWAP1 PUSH2 0x49D JUMP JUMPDEST POP POP POP POP DUP2 MSTORE PUSH1 0x20 ADD PUSH1 0x5 DUP3 ADD DUP1 SLOAD DUP1 PUSH1 0x20 MUL PUSH1 0x20 ADD PUSH1 0x40 MLOAD SWAP1 DUP2 ADD PUSH1 0x40 MSTORE DUP1 SWAP3 SWAP2 SWAP1 DUP2 DUP2 MSTORE PUSH1 0x20 ADD PUSH1 0x0 SWAP1 JUMPDEST DUP3 DUP3 LT ISZERO PUSH2 0x622 JUMPI DUP4 DUP3 SWAP1 PUSH1 0x0 MSTORE PUSH1 0x20 PUSH1 0x0 KECCAK256 ADD DUP1 SLOAD PUSH2 0x595 SWAP1 PUSH2 0x2374 JUMP JUMPDEST DUP1 PUSH1 0x1F ADD PUSH1 0x20 DUP1 SWAP2 DIV MUL PUSH1 0x20 ADD PUSH1 0x40 MLOAD SWAP1 DUP2 ADD PUSH1 0x40 MSTORE DUP1 SWAP3 SWAP2 SWAP1 DUP2 DUP2 MSTORE PUSH1 0x20 ADD DUP3 DUP1 SLOAD PUSH2 0x5C1 SWAP1 PUSH2 0x2374 JUMP JUMPDEST DUP1 ISZERO PUSH2 0x60E JUMPI DUP1 PUSH1 0x1F LT PUSH2 0x5E3 JUMPI PUSH2 0x100 DUP1 DUP4 SLOAD DIV MUL DUP4 MSTORE SWAP2 PUSH1 0x20 ADD SWAP2 PUSH2 0x60E JUMP JUMPDEST DUP3 ADD SWAP2 SWAP1 PUSH1 0x0 MSTORE PUSH1 0x20 PUSH1 0x0 KECCAK256 SWAP1 JUMPDEST DUP2 SLOAD DUP2 MSTORE SWAP1 PUSH1 0x1 ADD SWAP1 PUSH1 0x20 ADD DUP1 DUP4 GT PUSH2 0x5F1 JUMPI DUP3 SWAP1 SUB PUSH1 0x1F AND DUP3 ADD SWAP2 JUMPDEST POP POP POP POP POP DUP2 MSTORE PUSH1 0x20 ADD SWAP1 PUSH1 0x1 ADD SWAP1 PUSH2 0x576 JUMP JUMPDEST POP POP POP POP DUP2 MSTORE PUSH1 0x20 ADD PUSH1 0x6 DUP3 ADD DUP1 SLOAD DUP1 PUSH1 0x20 MUL PUSH1 0x20 ADD PUSH1 0x40 MLOAD SWAP1 DUP2 ADD PUSH1 0x40 MSTORE DUP1 SWAP3 SWAP2 SWAP1 DUP2 DUP2 MSTORE PUSH1 0x20 ADD PUSH1 0x0 SWAP1 JUMPDEST DUP3 DUP3 LT ISZERO PUSH2 0x6FB JUMPI DUP4 DUP3 SWAP1 PUSH1 0x0 MSTORE PUSH1 0x20 PUSH1 0x0 KECCAK256 ADD DUP1 SLOAD PUSH2 0x66E SWAP1 PUSH2 0x2374 JUMP JUMPDEST DUP1 PUSH1 0x1F ADD PUSH1 0x20 DUP1 SWAP2 DIV MUL PUSH1 0x20 ADD PUSH1 0x40 MLOAD SWAP1 DUP2 ADD PUSH1 0x40 MSTORE DUP1 SWAP3 SWAP2 SWAP1 DUP2 DUP2 MSTORE PUSH1 0x20 ADD DUP3 DUP1 SLOAD PUSH2 0x69A SWAP1 PUSH2 0x2374 JUMP JUMPDEST DUP1 ISZERO PUSH2 0x6E7 JUMPI DUP1 PUSH1 0x1F LT PUSH2 0x6BC JUMPI PUSH2 0x100 DUP1 DUP4 SLOAD DIV MUL DUP4 MSTORE SWAP2 PUSH1 0x20 ADD SWAP2 PUSH2 0x6E7 JUMP JUMPDEST DUP3 ADD SWAP2 SWAP1 PUSH1 0x0 MSTORE PUSH1 0x20 PUSH1 0x0 KECCAK256 SWAP1 JUMPDEST DUP2 SLOAD DUP2 MSTORE SWAP1 PUSH1 0x1 ADD SWAP1 PUSH1 0x20 ADD DUP1 DUP4 GT PUSH2 0x6CA JUMPI DUP3 SWAP1 SUB PUSH1 0x1F AND DUP3 ADD SWAP2 JUMPDEST POP POP POP POP POP DUP2 MSTORE PUSH1 0x20 ADD SWAP1 PUSH1 0x1 ADD SWAP1 PUSH2 0x64F JUMP JUMPDEST POP POP POP POP DUP2 MSTORE PUSH1 0x20 ADD PUSH1 0x7 DUP3 ADD DUP1 SLOAD DUP1 PUSH1 0x20 MUL PUSH1 0x20 ADD PUSH1 0x40 MLOAD SWAP1 DUP2 ADD PUSH1 0x40 MSTORE DUP1 SWAP3 SWAP2 SWAP1 DUP2 DUP2 MSTORE PUSH1 0x20 ADD PUSH1 0x0 SWAP1 JUMPDEST DUP3 DUP3 LT ISZERO PUSH2 0x7D4 JUMPI DUP4 DUP3 SWAP1 PUSH1 0x0 MSTORE PUSH1 0x20 PUSH1 0x0 KECCAK256 ADD DUP1 SLOAD PUSH2 0x747 SWAP1 PUSH2 0x2374 JUMP JUMPDEST DUP1 PUSH1 0x1F ADD PUSH1 0x20 DUP1 SWAP2 DIV MUL PUSH1 0x20 ADD PUSH1 0x40 MLOAD SWAP1 DUP2 ADD PUSH1 0x40 MSTORE DUP1 SWAP3 SWAP2 SWAP1 DUP2 DUP2 MSTORE PUSH1 0x20 ADD DUP3 DUP1 SLOAD PUSH2 0x773 SWAP1 PUSH2 0x2374 JUMP JUMPDEST DUP1 ISZERO PUSH2 0x7C0 JUMPI DUP1 PUSH1 0x1F LT PUSH2 0x795 JUMPI PUSH2 0x100 DUP1 DUP4 SLOAD DIV MUL DUP4 MSTORE SWAP2 PUSH1 0x20 ADD SWAP2 PUSH2 0x7C0 JUMP JUMPDEST DUP3 ADD SWAP2 SWAP1 PUSH1 0x0 MSTORE PUSH1 0x20 PUSH1 0x0 KECCAK256 SWAP1 JUMPDEST DUP2 SLOAD DUP2 MSTORE SWAP1 PUSH1 0x1 ADD SWAP1 PUSH1 0x20 ADD DUP1 DUP4 GT PUSH2 0x7A3 JUMPI DUP3 SWAP1 SUB PUSH1 0x1F AND DUP3 ADD SWAP2 JUMPDEST POP POP POP POP POP DUP2 MSTORE PUSH1 0x20 ADD SWAP1 PUSH1 0x1 ADD SWAP1 PUSH2 0x728 JUMP JUMPDEST POP POP POP POP DUP2 MSTORE PUSH1 0x20 ADD PUSH1 0x8 DUP3 ADD PUSH1 0x0 SWAP1 SLOAD SWAP1 PUSH2 0x100 EXP SWAP1 DIV PUSH16 0xFFFFFFFFFFFFFFFFFFFFFFFFFFFFFFFF AND PUSH16 0xFFFFFFFFFFFFFFFFFFFFFFFFFFFFFFFF AND PUSH16 0xFFFFFFFFFFFFFFFFFFFFFFFFFFFFFFFF AND DUP2 MSTORE POP POP SWAP1 POP PUSH1 0x0 PUSH1 0x40 MLOAD DUP1 PUSH1 0xC0 ADD PUSH1 0x40 MSTORE DUP1 DUP4 PUSH1 0x40 ADD MLOAD DUP8 PUSH16 0xFFFFFFFFFFFFFFFFFFFFFFFFFFFFFFFF AND DUP2 MLOAD DUP2 LT PUSH2 0x85E JUMPI PUSH2 0x85D PUSH2 0x23A5 JUMP JUMPDEST JUMPDEST PUSH1 0x20 MUL PUSH1 0x20 ADD ADD MLOAD DUP2 MSTORE PUSH1 0x20 ADD DUP4 PUSH1 0x60 ADD MLOAD DUP8 PUSH16 0xFFFFFFFFFFFFFFFFFFFFFFFFFFFFFFFF AND DUP2 MLOAD DUP2 LT PUSH2 0x894 JUMPI PUSH2 0x893 PUSH2 0x23A5 JUMP JUMPDEST JUMPDEST PUSH1 0x20 MUL PUSH1 0x20 ADD ADD MLOAD DUP2 MSTORE PUSH1 0x20 ADD DUP4 PUSH1 0x80 ADD MLOAD DUP8 PUSH16 0xFFFFFFFFFFFFFFFFFFFFFFFFFFFFFFFF AND DUP2 MLOAD DUP2 LT PUSH2 0x8CA JUMPI PUSH2 0x8C9 PUSH2 0x23A5 JUMP JUMPDEST JUMPDEST PUSH1 0x20 MUL PUSH1 0x20 ADD ADD MLOAD DUP2 MSTORE PUSH1 0x20 ADD DUP4 PUSH1 0xA0 ADD MLOAD DUP8 PUSH16 0xFFFFFFFFFFFFFFFFFFFFFFFFFFFFFFFF AND DUP2 MLOAD DUP2 LT PUSH2 0x900 JUMPI PUSH2 0x8FF PUSH2 0x23A5 JUMP JUMPDEST JUMPDEST PUSH1 0x20 MUL PUSH1 0x20 ADD ADD MLOAD DUP2 MSTORE PUSH1 0x20 ADD DUP4 PUSH1 0xC0 ADD MLOAD DUP8 PUSH16 0xFFFFFFFFFFFFFFFFFFFFFFFFFFFFFFFF AND DUP2 MLOAD DUP2 LT PUSH2 0x936 JUMPI PUSH2 0x935 PUSH2 0x23A5 JUMP JUMPDEST JUMPDEST PUSH1 0x20 MUL PUSH1 0x20 ADD ADD MLOAD DUP2 MSTORE PUSH1 0x20 ADD DUP4 PUSH1 0xE0 ADD MLOAD DUP8 PUSH16 0xFFFFFFFFFFFFFFFFFFFFFFFFFFFFFFFF AND DUP2 MLOAD DUP2 LT PUSH2 0x96C JUMPI PUSH2 0x96B PUSH2 0x23A5 JUMP JUMPDEST JUMPDEST PUSH1 0x20 MUL PUSH1 0x20 ADD ADD MLOAD DUP2 MSTORE POP SWAP1 POP DUP1 SWAP3 POP POP POP SWAP3 SWAP2 POP POP JUMP JUMPDEST PUSH1 0x1 PUSH1 0x0 DUP5 PUSH20 0xFFFFFFFFFFFFFFFFFFFFFFFFFFFFFFFFFFFFFFFF AND PUSH20 0xFFFFFFFFFFFFFFFFFFFFFFFFFFFFFFFFFFFFFFFF AND DUP2 MSTORE PUSH1 0x20 ADD SWAP1 DUP2 MSTORE PUSH1 0x20 ADD PUSH1 0x0 KECCAK256 PUSH1 0x0 DUP4 PUSH16 0xFFFFFFFFFFFFFFFFFFFFFFFFFFFFFFFF AND PUSH16 0xFFFFFFFFFFFFFFFFFFFFFFFFFFFFFFFF AND DUP2 MSTORE PUSH1 0x20 ADD SWAP1 DUP2 MSTORE PUSH1 0x20 ADD PUSH1 0x0 KECCAK256 DUP2 SWAP1 DUP1 PUSH1 0x1 DUP2 SLOAD ADD DUP1 DUP3 SSTORE DUP1 SWAP2 POP POP PUSH1 0x1 SWAP1 SUB SWAP1 PUSH1 0x0 MSTORE PUSH1 0x20 PUSH1 0x0 KECCAK256 ADD PUSH1 0x0 SWAP1 SWAP2 SWAP1 SWAP2 SWAP1 SWAP2 PUSH2 0x100 EXP DUP2 SLOAD DUP2 PUSH20 0xFFFFFFFFFFFFFFFFFFFFFFFFFFFFFFFFFFFFFFFF MUL NOT AND SWAP1 DUP4 PUSH20 0xFFFFFFFFFFFFFFFFFFFFFFFFFFFFFFFFFFFFFFFF AND MUL OR SWAP1 SSTORE POP POP POP POP JUMP JUMPDEST PUSH1 0x2 PUSH1 0x20 MSTORE DUP1 PUSH1 0x0 MSTORE PUSH1 0x40 PUSH1 0x0 KECCAK256 PUSH1 0x0 SWAP2 POP SWAP1 POP DUP1 PUSH1 0x0 ADD DUP1 SLOAD PUSH2 0xA81 SWAP1 PUSH2 0x2374 JUMP JUMPDEST DUP1 PUSH1 0x1F ADD PUSH1 0x20 DUP1 SWAP2 DIV MUL PUSH1 0x20 ADD PUSH1 0x40 MLOAD SWAP1 DUP2 ADD PUSH1 0x40 MSTORE DUP1 SWAP3 SWAP2 SWAP1 DUP2 DUP2 MSTORE PUSH1 0x20 ADD DUP3 DUP1 SLOAD PUSH2 0xAAD SWAP1 PUSH2 0x2374 JUMP JUMPDEST DUP1 ISZERO PUSH2 0xAFA JUMPI DUP1 PUSH1 0x1F LT PUSH2 0xACF JUMPI PUSH2 0x100 DUP1 DUP4 SLOAD DIV MUL DUP4 MSTORE SWAP2 PUSH1 0x20 ADD SWAP2 PUSH2 0xAFA JUMP JUMPDEST DUP3 ADD SWAP2 SWAP1 PUSH1 0x0 MSTORE PUSH1 0x20 PUSH1 0x0 KECCAK256 SWAP1 JUMPDEST DUP2 SLOAD DUP2 MSTORE SWAP1 PUSH1 0x1 ADD SWAP1 PUSH1 0x20 ADD DUP1 DUP4 GT PUSH2 0xADD JUMPI DUP3 SWAP1 SUB PUSH1 0x1F AND DUP3 ADD SWAP2 JUMPDEST POP POP POP POP POP SWAP1 DUP1 PUSH1 0x1 ADD DUP1 SLOAD PUSH2 0xB0F SWAP1 PUSH2 0x2374 JUMP JUMPDEST DUP1 PUSH1 0x1F ADD PUSH1 0x20 DUP1 SWAP2 DIV MUL PUSH1 0x20 ADD PUSH1 0x40 MLOAD SWAP1 DUP2 ADD PUSH1 0x40 MSTORE DUP1 SWAP3 SWAP2 SWAP1 DUP2 DUP2 MSTORE PUSH1 0x20 ADD DUP3 DUP1 SLOAD PUSH2 0xB3B SWAP1 PUSH2 0x2374 JUMP JUMPDEST DUP1 ISZERO PUSH2 0xB88 JUMPI DUP1 PUSH1 0x1F LT PUSH2 0xB5D JUMPI PUSH2 0x100 DUP1 DUP4 SLOAD DIV MUL DUP4 MSTORE SWAP2 PUSH1 0x20 ADD SWAP2 PUSH2 0xB88 JUMP JUMPDEST DUP3 ADD SWAP2 SWAP1 PUSH1 0x0 MSTORE PUSH1 0x20 PUSH1 0x0 KECCAK256 SWAP1 JUMPDEST DUP2 SLOAD DUP2 MSTORE SWAP1 PUSH1 0x1 ADD SWAP1 PUSH1 0x20 ADD DUP1 DUP4 GT PUSH2 0xB6B JUMPI DUP3 SWAP1 SUB PUSH1 0x1F AND DUP3 ADD SWAP2 JUMPDEST POP POP POP POP POP SWAP1 DUP1 PUSH1 0x8 ADD PUSH1 0x0 SWAP1 SLOAD SWAP1 PUSH2 0x100 EXP SWAP1 DIV PUSH16 0xFFFFFFFFFFFFFFFFFFFFFFFFFFFFFFFF AND SWAP1 POP DUP4 JUMP JUMPDEST PUSH1 0x40 MLOAD DUP1 PUSH2 0x120 ADD PUSH1 0x40 MSTORE DUP1 DUP6 DUP2 MSTORE PUSH1 0x20 ADD DUP5 DUP2 MSTORE PUSH1 0x20 ADD DUP3 DUP2 MSTORE PUSH1 0x20 ADD DUP3 DUP2 MSTORE PUSH1 0x20 ADD DUP3 DUP2 MSTORE PUSH1 0x20 ADD DUP3 DUP2 MSTORE PUSH1 0x20 ADD DUP3 DUP2 MSTORE PUSH1 0x20 ADD DUP3 DUP2 MSTORE PUSH1 0x20 ADD PUSH1 0x0 PUSH16 0xFFFFFFFFFFFFFFFFFFFFFFFFFFFFFFFF AND DUP2 MSTORE POP PUSH1 0x2 PUSH1 0x0 DUP5 PUSH20 0xFFFFFFFFFFFFFFFFFFFFFFFFFFFFFFFFFFFFFFFF AND PUSH20 0xFFFFFFFFFFFFFFFFFFFFFFFFFFFFFFFFFFFFFFFF AND DUP2 MSTORE PUSH1 0x20 ADD SWAP1 DUP2 MSTORE PUSH1 0x20 ADD PUSH1 0x0 KECCAK256 PUSH1 0x0 DUP3 ADD MLOAD DUP2 PUSH1 0x0 ADD SWAP1 DUP2 PUSH2 0xC5B SWAP2 SWAP1 PUSH2 0x258A JUMP JUMPDEST POP PUSH1 0x20 DUP3 ADD MLOAD DUP2 PUSH1 0x1 ADD SWAP1 DUP2 PUSH2 0xC71 SWAP2 SWAP1 PUSH2 0x258A JUMP JUMPDEST POP PUSH1 0x40 DUP3 ADD MLOAD DUP2 PUSH1 0x2 ADD SWAP1 DUP1 MLOAD SWAP1 PUSH1 0x20 ADD SWAP1 PUSH2 0xC8E SWAP3 SWAP2 SWAP1 PUSH2 0x188E JUMP JUMPDEST POP PUSH1 0x60 DUP3 ADD MLOAD DUP2 PUSH1 0x3 ADD SWAP1 DUP1 MLOAD SWAP1 PUSH1 0x20 ADD SWAP1 PUSH2 0xCAB SWAP3 SWAP2 SWAP1 PUSH2 0x188E JUMP JUMPDEST POP PUSH1 0x80 DUP3 ADD MLOAD DUP2 PUSH1 0x4 ADD SWAP1 DUP1 MLOAD SWAP1 PUSH1 0x20 ADD SWAP1 PUSH2 0xCC8 SWAP3 SWAP2 SWAP1 PUSH2 0x188E JUMP JUMPDEST POP PUSH1 0xA0 DUP3 ADD MLOAD DUP2 PUSH1 0x5 ADD SWAP1 DUP1 MLOAD SWAP1 PUSH1 0x20 ADD SWAP1 PUSH2 0xCE5 SWAP3 SWAP2 SWAP1 PUSH2 0x188E JUMP JUMPDEST POP PUSH1 0xC0 DUP3 ADD MLOAD DUP2 PUSH1 0x6 ADD SWAP1 DUP1 MLOAD SWAP1 PUSH1 0x20 ADD SWAP1 PUSH2 0xD02 SWAP3 SWAP2 SWAP1 PUSH2 0x188E JUMP JUMPDEST POP PUSH1 0xE0 DUP3 ADD MLOAD DUP2 PUSH1 0x7 ADD SWAP1 DUP1 MLOAD SWAP1 PUSH1 0x20 ADD SWAP1 PUSH2 0xD1F SWAP3 SWAP2 SWAP1 PUSH2 0x188E JUMP JUMPDEST POP PUSH2 0x100 DUP3 ADD MLOAD DUP2 PUSH1 0x8 ADD PUSH1 0x0 PUSH2 0x100 EXP DUP2 SLOAD DUP2 PUSH16 0xFFFFFFFFFFFFFFFFFFFFFFFFFFFFFFFF MUL NOT AND SWAP1 DUP4 PUSH16 0xFFFFFFFFFFFFFFFFFFFFFFFFFFFFFFFF AND MUL OR SWAP1 SSTORE POP SWAP1 POP POP POP POP POP POP JUMP JUMPDEST PUSH2 0xD71 PUSH2 0x18E7 JUMP JUMPDEST PUSH1 0x2 PUSH1 0x0 DUP4 PUSH20 0xFFFFFFFFFFFFFFFFFFFFFFFFFFFFFFFFFFFFFFFF AND PUSH20 0xFFFFFFFFFFFFFFFFFFFFFFFFFFFFFFFFFFFFFFFF AND DUP2 MSTORE PUSH1 0x20 ADD SWAP1 DUP2 MSTORE PUSH1 0x20 ADD PUSH1 0x0 KECCAK256 PUSH1 0x40 MLOAD DUP1 PUSH2 0x120 ADD PUSH1 0x40 MSTORE SWAP1 DUP2 PUSH1 0x0 DUP3 ADD DUP1 SLOAD PUSH2 0xDCC SWAP1 PUSH2 0x2374 JUMP JUMPDEST DUP1 PUSH1 0x1F ADD PUSH1 0x20 DUP1 SWAP2 DIV MUL PUSH1 0x20 ADD PUSH1 0x40 MLOAD SWAP1 DUP2 ADD PUSH1 0x40 MSTORE DUP1 SWAP3 SWAP2 SWAP1 DUP2 DUP2 MSTORE PUSH1 0x20 ADD DUP3 DUP1 SLOAD PUSH2 0xDF8 SWAP1 PUSH2 0x2374 JUMP JUMPDEST DUP1 ISZERO PUSH2 0xE45 JUMPI DUP1 PUSH1 0x1F LT PUSH2 0xE1A JUMPI PUSH2 0x100 DUP1 DUP4 SLOAD DIV MUL DUP4 MSTORE SWAP2 PUSH1 0x20 ADD SWAP2 PUSH2 0xE45 JUMP JUMPDEST DUP3 ADD SWAP2 SWAP1 PUSH1 0x0 MSTORE PUSH1 0x20 PUSH1 0x0 KECCAK256 SWAP1 JUMPDEST DUP2 SLOAD DUP2 MSTORE SWAP1 PUSH1 0x1 ADD SWAP1 PUSH1 0x20 ADD DUP1 DUP4 GT PUSH2 0xE28 JUMPI DUP3 SWAP1 SUB PUSH1 0x1F AND DUP3 ADD SWAP2 JUMPDEST POP POP POP POP POP DUP2 MSTORE PUSH1 0x20 ADD PUSH1 0x1 DUP3 ADD DUP1 SLOAD PUSH2 0xE5E SWAP1 PUSH2 0x2374 JUMP JUMPDEST DUP1 PUSH1 0x1F ADD PUSH1 0x20 DUP1 SWAP2 DIV MUL PUSH1 0x20 ADD PUSH1 0x40 MLOAD SWAP1 DUP2 ADD PUSH1 0x40 MSTORE DUP1 SWAP3 SWAP2 SWAP1 DUP2 DUP2 MSTORE PUSH1 0x20 ADD DUP3 DUP1 SLOAD PUSH2 0xE8A SWAP1 PUSH2 0x2374 JUMP JUMPDEST DUP1 ISZERO PUSH2 0xED7 JUMPI DUP1 PUSH1 0x1F LT PUSH2 0xEAC JUMPI PUSH2 0x100 DUP1 DUP4 SLOAD DIV MUL DUP4 MSTORE SWAP2 PUSH1 0x20 ADD SWAP2 PUSH2 0xED7 JUMP JUMPDEST DUP3 ADD SWAP2 SWAP1 PUSH1 0x0 MSTORE PUSH1 0x20 PUSH1 0x0 KECCAK256 SWAP1 JUMPDEST DUP2 SLOAD DUP2 MSTORE SWAP1 PUSH1 0x1 ADD SWAP1 PUSH1 0x20 ADD DUP1 DUP4 GT PUSH2 0xEBA JUMPI DUP3 SWAP1 SUB PUSH1 0x1F AND DUP3 ADD SWAP2 JUMPDEST POP POP POP POP POP DUP2 MSTORE PUSH1 0x20 ADD PUSH1 0x2 DUP3 ADD DUP1 SLOAD DUP1 PUSH1 0x20 MUL PUSH1 0x20 ADD PUSH1 0x40 MLOAD SWAP1 DUP2 ADD PUSH1 0x40 MSTORE DUP1 SWAP3 SWAP2 SWAP1 DUP2 DUP2 MSTORE PUSH1 0x20 ADD PUSH1 0x0 SWAP1 JUMPDEST DUP3 DUP3 LT ISZERO PUSH2 0xFB1 JUMPI DUP4 DUP3 SWAP1 PUSH1 0x0 MSTORE PUSH1 0x20 PUSH1 0x0 KECCAK256 ADD DUP1 SLOAD PUSH2 0xF24 SWAP1 PUSH2 0x2374 JUMP JUMPDEST DUP1 PUSH1 0x1F ADD PUSH1 0x20 DUP1 SWAP2 DIV MUL PUSH1 0x20 ADD PUSH1 0x40 MLOAD SWAP1 DUP2 ADD PUSH1 0x40 MSTORE DUP1 SWAP3 SWAP2 SWAP1 DUP2 DUP2 MSTORE PUSH1 0x20 ADD DUP3 DUP1 SLOAD PUSH2 0xF50 SWAP1 PUSH2 0x2374 JUMP JUMPDEST DUP1 ISZERO PUSH2 0xF9D JUMPI DUP1 PUSH1 0x1F LT PUSH2 0xF72 JUMPI PUSH2 0x100 DUP1 DUP4 SLOAD DIV MUL DUP4 MSTORE SWAP2 PUSH1 0x20 ADD SWAP2 PUSH2 0xF9D JUMP JUMPDEST DUP3 ADD SWAP2 SWAP1 PUSH1 0x0 MSTORE PUSH1 0x20 PUSH1 0x0 KECCAK256 SWAP1 JUMPDEST DUP2 SLOAD DUP2 MSTORE SWAP1 PUSH1 0x1 ADD SWAP1 PUSH1 0x20 ADD DUP1 DUP4 GT PUSH2 0xF80 JUMPI DUP3 SWAP1 SUB PUSH1 0x1F AND DUP3 ADD SWAP2 JUMPDEST POP POP POP POP POP DUP2 MSTORE PUSH1 0x20 ADD SWAP1 PUSH1 0x1 ADD SWAP1 PUSH2 0xF05 JUMP JUMPDEST POP POP POP POP DUP2 MSTORE PUSH1 0x20 ADD PUSH1 0x3 DUP3 ADD DUP1 SLOAD DUP1 PUSH1 0x20 MUL PUSH1 0x20 ADD PUSH1 0x40 MLOAD SWAP1 DUP2 ADD PUSH1 0x40 MSTORE DUP1 SWAP3 SWAP2 SWAP1 DUP2 DUP2 MSTORE PUSH1 0x20 ADD PUSH1 0x0 SWAP1 JUMPDEST DUP3 DUP3 LT ISZERO PUSH2 0x108A JUMPI DUP4 DUP3 SWAP1 PUSH1 0x0 MSTORE PUSH1 0x20 PUSH1 0x0 KECCAK256 ADD DUP1 SLOAD PUSH2 0xFFD SWAP1 PUSH2 0x2374 JUMP JUMPDEST DUP1 PUSH1 0x1F ADD PUSH1 0x20 DUP1 SWAP2 DIV MUL PUSH1 0x20 ADD PUSH1 0x40 MLOAD SWAP1 DUP2 ADD PUSH1 0x40 MSTORE DUP1 SWAP3 SWAP2 SWAP1 DUP2 DUP2 MSTORE PUSH1 0x20 ADD DUP3 DUP1 SLOAD PUSH2 0x1029 SWAP1 PUSH2 0x2374 JUMP JUMPDEST DUP1 ISZERO PUSH2 0x1076 JUMPI DUP1 PUSH1 0x1F LT PUSH2 0x104B JUMPI PUSH2 0x100 DUP1 DUP4 SLOAD DIV MUL DUP4 MSTORE SWAP2 PUSH1 0x20 ADD SWAP2 PUSH2 0x1076 JUMP JUMPDEST DUP3 ADD SWAP2 SWAP1 PUSH1 0x0 MSTORE PUSH1 0x20 PUSH1 0x0 KECCAK256 SWAP1 JUMPDEST DUP2 SLOAD DUP2 MSTORE SWAP1 PUSH1 0x1 ADD SWAP1 PUSH1 0x20 ADD DUP1 DUP4 GT PUSH2 0x1059 JUMPI DUP3 SWAP1 SUB PUSH1 0x1F AND DUP3 ADD SWAP2 JUMPDEST POP POP POP POP POP DUP2 MSTORE PUSH1 0x20 ADD SWAP1 PUSH1 0x1 ADD SWAP1 PUSH2 0xFDE JUMP JUMPDEST POP POP POP POP DUP2 MSTORE PUSH1 0x20 ADD PUSH1 0x4 DUP3 ADD DUP1 SLOAD DUP1 PUSH1 0x20 MUL PUSH1 0x20 ADD PUSH1 0x40 MLOAD SWAP1 DUP2 ADD PUSH1 0x40 MSTORE DUP1 SWAP3 SWAP2 SWAP1 DUP2 DUP2 MSTORE PUSH1 0x20 ADD PUSH1 0x0 SWAP1 JUMPDEST DUP3 DUP3 LT ISZERO PUSH2 0x1163 JUMPI DUP4 DUP3 SWAP1 PUSH1 0x0 MSTORE PUSH1 0x20 PUSH1 0x0 KECCAK256 ADD DUP1 SLOAD PUSH2 0x10D6 SWAP1 PUSH2 0x2374 JUMP JUMPDEST DUP1 PUSH1 0x1F ADD PUSH1 0x20 DUP1 SWAP2 DIV MUL PUSH1 0x20 ADD PUSH1 0x40 MLOAD SWAP1 DUP2 ADD PUSH1 0x40 MSTORE DUP1 SWAP3 SWAP2 SWAP1 DUP2 DUP2 MSTORE PUSH1 0x20 ADD DUP3 DUP1 SLOAD PUSH2 0x1102 SWAP1 PUSH2 0x2374 JUMP JUMPDEST DUP1 ISZERO PUSH2 0x114F JUMPI DUP1 PUSH1 0x1F LT PUSH2 0x1124 JUMPI PUSH2 0x100 DUP1 DUP4 SLOAD DIV MUL DUP4 MSTORE SWAP2 PUSH1 0x20 ADD SWAP2 PUSH2 0x114F JUMP JUMPDEST DUP3 ADD SWAP2 SWAP1 PUSH1 0x0 MSTORE PUSH1 0x20 PUSH1 0x0 KECCAK256 SWAP1 JUMPDEST DUP2 SLOAD DUP2 MSTORE SWAP1 PUSH1 0x1 ADD SWAP1 PUSH1 0x20 ADD DUP1 DUP4 GT PUSH2 0x1132 JUMPI DUP3 SWAP1 SUB PUSH1 0x1F AND DUP3 ADD SWAP2 JUMPDEST POP POP POP POP POP DUP2 MSTORE PUSH1 0x20 ADD SWAP1 PUSH1 0x1 ADD SWAP1 PUSH2 0x10B7 JUMP JUMPDEST POP POP POP POP DUP2 MSTORE PUSH1 0x20 ADD PUSH1 0x5 DUP3 ADD DUP1 SLOAD DUP1 PUSH1 0x20 MUL PUSH1 0x20 ADD PUSH1 0x40 MLOAD SWAP1 DUP2 ADD PUSH1 0x40 MSTORE DUP1 SWAP3 SWAP2 SWAP1 DUP2 DUP2 MSTORE PUSH1 0x20 ADD PUSH1 0x0 SWAP1 JUMPDEST DUP3 DUP3 LT ISZERO PUSH2 0x123C JUMPI DUP4 DUP3 SWAP1 PUSH1 0x0 MSTORE PUSH1 0x20 PUSH1 0x0 KECCAK256 ADD DUP1 SLOAD PUSH2 0x11AF SWAP1 PUSH2 0x2374 JUMP JUMPDEST DUP1 PUSH1 0x1F ADD PUSH1 0x20 DUP1 SWAP2 DIV MUL PUSH1 0x20 ADD PUSH1 0x40 MLOAD SWAP1 DUP2 ADD PUSH1 0x40 MSTORE DUP1 SWAP3 SWAP2 SWAP1 DUP2 DUP2 MSTORE PUSH1 0x20 ADD DUP3 DUP1 SLOAD PUSH2 0x11DB SWAP1 PUSH2 0x2374 JUMP JUMPDEST DUP1 ISZERO PUSH2 0x1228 JUMPI DUP1 PUSH1 0x1F LT PUSH2 0x11FD JUMPI PUSH2 0x100 DUP1 DUP4 SLOAD DIV MUL DUP4 MSTORE SWAP2 PUSH1 0x20 ADD SWAP2 PUSH2 0x1228 JUMP JUMPDEST DUP3 ADD SWAP2 SWAP1 PUSH1 0x0 MSTORE PUSH1 0x20 PUSH1 0x0 KECCAK256 SWAP1 JUMPDEST DUP2 SLOAD DUP2 MSTORE SWAP1 PUSH1 0x1 ADD SWAP1 PUSH1 0x20 ADD DUP1 DUP4 GT PUSH2 0x120B JUMPI DUP3 SWAP1 SUB PUSH1 0x1F AND DUP3 ADD SWAP2 JUMPDEST POP POP POP POP POP DUP2 MSTORE PUSH1 0x20 ADD SWAP1 PUSH1 0x1 ADD SWAP1 PUSH2 0x1190 JUMP JUMPDEST POP POP POP POP DUP2 MSTORE PUSH1 0x20 ADD PUSH1 0x6 DUP3 ADD DUP1 SLOAD DUP1 PUSH1 0x20 MUL PUSH1 0x20 ADD PUSH1 0x40 MLOAD SWAP1 DUP2 ADD PUSH1 0x40 MSTORE DUP1 SWAP3 SWAP2 SWAP1 DUP2 DUP2 MSTORE PUSH1 0x20 ADD PUSH1 0x0 SWAP1 JUMPDEST DUP3 DUP3 LT ISZERO PUSH2 0x1315 JUMPI DUP4 DUP3 SWAP1 PUSH1 0x0 MSTORE PUSH1 0x20 PUSH1 0x0 KECCAK256 ADD DUP1 SLOAD PUSH2 0x1288 SWAP1 PUSH2 0x2374 JUMP JUMPDEST DUP1 PUSH1 0x1F ADD PUSH1 0x20 DUP1 SWAP2 DIV MUL PUSH1 0x20 ADD PUSH1 0x40 MLOAD SWAP1 DUP2 ADD PUSH1 0x40 MSTORE DUP1 SWAP3 SWAP2 SWAP1 DUP2 DUP2 MSTORE PUSH1 0x20 ADD DUP3 DUP1 SLOAD PUSH2 0x12B4 SWAP1 PUSH2 0x2374 JUMP JUMPDEST DUP1 ISZERO PUSH2 0x1301 JUMPI DUP1 PUSH1 0x1F LT PUSH2 0x12D6 JUMPI PUSH2 0x100 DUP1 DUP4 SLOAD DIV MUL DUP4 MSTORE SWAP2 PUSH1 0x20 ADD SWAP2 PUSH2 0x1301 JUMP JUMPDEST DUP3 ADD SWAP2 SWAP1 PUSH1 0x0 MSTORE PUSH1 0x20 PUSH1 0x0 KECCAK256 SWAP1 JUMPDEST DUP2 SLOAD DUP2 MSTORE SWAP1 PUSH1 0x1 ADD SWAP1 PUSH1 0x20 ADD DUP1 DUP4 GT PUSH2 0x12E4 JUMPI DUP3 SWAP1 SUB PUSH1 0x1F AND DUP3 ADD SWAP2 JUMPDEST POP POP POP POP POP DUP2 MSTORE PUSH1 0x20 ADD SWAP1 PUSH1 0x1 ADD SWAP1 PUSH2 0x1269 JUMP JUMPDEST POP POP POP POP DUP2 MSTORE PUSH1 0x20 ADD PUSH1 0x7 DUP3 ADD DUP1 SLOAD DUP1 PUSH1 0x20 MUL PUSH1 0x20 ADD PUSH1 0x40 MLOAD SWAP1 DUP2 ADD PUSH1 0x40 MSTORE DUP1 SWAP3 SWAP2 SWAP1 DUP2 DUP2 MSTORE PUSH1 0x20 ADD PUSH1 0x0 SWAP1 JUMPDEST DUP3 DUP3 LT ISZERO PUSH2 0x13EE JUMPI DUP4 DUP3 SWAP1 PUSH1 0x0 MSTORE PUSH1 0x20 PUSH1 0x0 KECCAK256 ADD DUP1 SLOAD PUSH2 0x1361 SWAP1 PUSH2 0x2374 JUMP JUMPDEST DUP1 PUSH1 0x1F ADD PUSH1 0x20 DUP1 SWAP2 DIV MUL PUSH1 0x20 ADD PUSH1 0x40 MLOAD SWAP1 DUP2 ADD PUSH1 0x40 MSTORE DUP1 SWAP3 SWAP2 SWAP1 DUP2 DUP2 MSTORE PUSH1 0x20 ADD DUP3 DUP1 SLOAD PUSH2 0x138D SWAP1 PUSH2 0x2374 JUMP JUMPDEST DUP1 ISZERO PUSH2 0x13DA JUMPI DUP1 PUSH1 0x1F LT PUSH2 0x13AF JUMPI PUSH2 0x100 DUP1 DUP4 SLOAD DIV MUL DUP4 MSTORE SWAP2 PUSH1 0x20 ADD SWAP2 PUSH2 0x13DA JUMP JUMPDEST DUP3 ADD SWAP2 SWAP1 PUSH1 0x0 MSTORE PUSH1 0x20 PUSH1 0x0 KECCAK256 SWAP1 JUMPDEST DUP2 SLOAD DUP2 MSTORE SWAP1 PUSH1 0x1 ADD SWAP1 PUSH1 0x20 ADD DUP1 DUP4 GT PUSH2 0x13BD JUMPI DUP3 SWAP1 SUB PUSH1 0x1F AND DUP3 ADD SWAP2 JUMPDEST POP POP POP POP POP DUP2 MSTORE PUSH1 0x20 ADD SWAP1 PUSH1 0x1 ADD SWAP1 PUSH2 0x1342 JUMP JUMPDEST POP POP POP POP DUP2 MSTORE PUSH1 0x20 ADD PUSH1 0x8 DUP3 ADD PUSH1 0x0 SWAP1 SLOAD SWAP1 PUSH2 0x100 EXP SWAP1 DIV PUSH16 0xFFFFFFFFFFFFFFFFFFFFFFFFFFFFFFFF AND PUSH16 0xFFFFFFFFFFFFFFFFFFFFFFFFFFFFFFFF AND PUSH16 0xFFFFFFFFFFFFFFFFFFFFFFFFFFFFFFFF AND DUP2 MSTORE POP POP SWAP1 POP SWAP2 SWAP1 POP JUMP JUMPDEST PUSH1 0x0 PUSH1 0x2 PUSH1 0x0 DUP4 PUSH20 0xFFFFFFFFFFFFFFFFFFFFFFFFFFFFFFFFFFFFFFFF AND PUSH20 0xFFFFFFFFFFFFFFFFFFFFFFFFFFFFFFFFFFFFFFFF AND DUP2 MSTORE PUSH1 0x20 ADD SWAP1 DUP2 MSTORE PUSH1 0x20 ADD PUSH1 0x0 KECCAK256 PUSH1 0x8 ADD PUSH1 0x0 SWAP1 SLOAD SWAP1 PUSH2 0x100 EXP SWAP1 DIV PUSH16 0xFFFFFFFFFFFFFFFFFFFFFFFFFFFFFFFF AND SWAP1 POP DUP8 PUSH1 0x2 PUSH1 0x0 DUP5 PUSH20 0xFFFFFFFFFFFFFFFFFFFFFFFFFFFFFFFFFFFFFFFF AND PUSH20 0xFFFFFFFFFFFFFFFFFFFFFFFFFFFFFFFFFFFFFFFF AND DUP2 MSTORE PUSH1 0x20 ADD SWAP1 DUP2 MSTORE PUSH1 0x20 ADD PUSH1 0x0 KECCAK256 PUSH1 0x2 ADD DUP3 PUSH16 0xFFFFFFFFFFFFFFFFFFFFFFFFFFFFFFFF AND DUP2 SLOAD DUP2 LT PUSH2 0x1511 JUMPI PUSH2 0x1510 PUSH2 0x23A5 JUMP JUMPDEST JUMPDEST SWAP1 PUSH1 0x0 MSTORE PUSH1 0x20 PUSH1 0x0 KECCAK256 ADD SWAP1 DUP2 PUSH2 0x1527 SWAP2 SWAP1 PUSH2 0x258A JUMP JUMPDEST POP DUP3 PUSH1 0x2 PUSH1 0x0 DUP5 PUSH20 0xFFFFFFFFFFFFFFFFFFFFFFFFFFFFFFFFFFFFFFFF AND PUSH20 0xFFFFFFFFFFFFFFFFFFFFFFFFFFFFFFFFFFFFFFFF AND DUP2 MSTORE PUSH1 0x20 ADD SWAP1 DUP2 MSTORE PUSH1 0x20 ADD PUSH1 0x0 KECCAK256 PUSH1 0x3 ADD DUP3 PUSH16 0xFFFFFFFFFFFFFFFFFFFFFFFFFFFFFFFF AND DUP2 SLOAD DUP2 LT PUSH2 0x158F JUMPI PUSH2 0x158E PUSH2 0x23A5 JUMP JUMPDEST JUMPDEST SWAP1 PUSH1 0x0 MSTORE PUSH1 0x20 PUSH1 0x0 KECCAK256 ADD SWAP1 DUP2 PUSH2 0x15A5 SWAP2 SWAP1 PUSH2 0x258A JUMP JUMPDEST POP DUP7 PUSH1 0x2 PUSH1 0x0 DUP5 PUSH20 0xFFFFFFFFFFFFFFFFFFFFFFFFFFFFFFFFFFFFFFFF AND PUSH20 0xFFFFFFFFFFFFFFFFFFFFFFFFFFFFFFFFFFFFFFFF AND DUP2 MSTORE PUSH1 0x20 ADD SWAP1 DUP2 MSTORE PUSH1 0x20 ADD PUSH1 0x0 KECCAK256 PUSH1 0x4 ADD DUP3 PUSH16 0xFFFFFFFFFFFFFFFFFFFFFFFFFFFFFFFF AND DUP2 SLOAD DUP2 LT PUSH2 0x160D JUMPI PUSH2 0x160C PUSH2 0x23A5 JUMP JUMPDEST JUMPDEST SWAP1 PUSH1 0x0 MSTORE PUSH1 0x20 PUSH1 0x0 KECCAK256 ADD SWAP1 DUP2 PUSH2 0x1623 SWAP2 SWAP1 PUSH2 0x258A JUMP JUMPDEST POP DUP6 PUSH1 0x2 PUSH1 0x0 DUP5 PUSH20 0xFFFFFFFFFFFFFFFFFFFFFFFFFFFFFFFFFFFFFFFF AND PUSH20 0xFFFFFFFFFFFFFFFFFFFFFFFFFFFFFFFFFFFFFFFF AND DUP2 MSTORE PUSH1 0x20 ADD SWAP1 DUP2 MSTORE PUSH1 0x20 ADD PUSH1 0x0 KECCAK256 PUSH1 0x5 ADD DUP3 PUSH16 0xFFFFFFFFFFFFFFFFFFFFFFFFFFFFFFFF AND DUP2 SLOAD DUP2 LT PUSH2 0x168B JUMPI PUSH2 0x168A PUSH2 0x23A5 JUMP JUMPDEST JUMPDEST SWAP1 PUSH1 0x0 MSTORE PUSH1 0x20 PUSH1 0x0 KECCAK256 ADD SWAP1 DUP2 PUSH2 0x16A1 SWAP2 SWAP1 PUSH2 0x258A JUMP JUMPDEST POP DUP5 PUSH1 0x2 PUSH1 0x0 DUP5 PUSH20 0xFFFFFFFFFFFFFFFFFFFFFFFFFFFFFFFFFFFFFFFF AND PUSH20 0xFFFFFFFFFFFFFFFFFFFFFFFFFFFFFFFFFFFFFFFF AND DUP2 MSTORE PUSH1 0x20 ADD SWAP1 DUP2 MSTORE PUSH1 0x20 ADD PUSH1 0x0 KECCAK256 PUSH1 0x6 ADD DUP3 PUSH16 0xFFFFFFFFFFFFFFFFFFFFFFFFFFFFFFFF AND DUP2 SLOAD DUP2 LT PUSH2 0x1709 JUMPI PUSH2 0x1708 PUSH2 0x23A5 JUMP JUMPDEST JUMPDEST SWAP1 PUSH1 0x0 MSTORE PUSH1 0x20 PUSH1 0x0 KECCAK256 ADD SWAP1 DUP2 PUSH2 0x171F SWAP2 SWAP1 PUSH2 0x258A JUMP JUMPDEST POP DUP4 PUSH1 0x2 PUSH1 0x0 DUP5 PUSH20 0xFFFFFFFFFFFFFFFFFFFFFFFFFFFFFFFFFFFFFFFF AND PUSH20 0xFFFFFFFFFFFFFFFFFFFFFFFFFFFFFFFFFFFFFFFF AND DUP2 MSTORE PUSH1 0x20 ADD SWAP1 DUP2 MSTORE PUSH1 0x20 ADD PUSH1 0x0 KECCAK256 PUSH1 0x7 ADD DUP3 PUSH16 0xFFFFFFFFFFFFFFFFFFFFFFFFFFFFFFFF AND DUP2 SLOAD DUP2 LT PUSH2 0x1787 JUMPI PUSH2 0x1786 PUSH2 0x23A5 JUMP JUMPDEST JUMPDEST SWAP1 PUSH1 0x0 MSTORE PUSH1 0x20 PUSH1 0x0 KECCAK256 ADD SWAP1 DUP2 PUSH2 0x179D SWAP2 SWAP1 PUSH2 0x258A JUMP JUMPDEST POP PUSH2 0x17A7 DUP3 PUSH2 0x17B1 JUMP JUMPDEST POP POP POP POP POP POP POP POP JUMP JUMPDEST PUSH1 0x1 PUSH1 0x2 PUSH1 0x0 DUP4 PUSH20 0xFFFFFFFFFFFFFFFFFFFFFFFFFFFFFFFFFFFFFFFF AND PUSH20 0xFFFFFFFFFFFFFFFFFFFFFFFFFFFFFFFFFFFFFFFF AND DUP2 MSTORE PUSH1 0x20 ADD SWAP1 DUP2 MSTORE PUSH1 0x20 ADD PUSH1 0x0 KECCAK256 PUSH1 0x8 ADD PUSH1 0x0 DUP3 DUP3 DUP3 SWAP1 SLOAD SWAP1 PUSH2 0x100 EXP SWAP1 DIV PUSH16 0xFFFFFFFFFFFFFFFFFFFFFFFFFFFFFFFF AND PUSH2 0x181F SWAP2 SWAP1 PUSH2 0x268B JUMP JUMPDEST SWAP3 POP PUSH2 0x100 EXP DUP2 SLOAD DUP2 PUSH16 0xFFFFFFFFFFFFFFFFFFFFFFFFFFFFFFFF MUL NOT AND SWAP1 DUP4 PUSH16 0xFFFFFFFFFFFFFFFFFFFFFFFFFFFFFFFF AND MUL OR SWAP1 SSTORE POP POP JUMP JUMPDEST PUSH1 0x40 MLOAD DUP1 PUSH1 0xC0 ADD PUSH1 0x40 MSTORE DUP1 PUSH1 0x60 DUP2 MSTORE PUSH1 0x20 ADD PUSH1 0x60 DUP2 MSTORE PUSH1 0x20 ADD PUSH1 0x60 DUP2 MSTORE PUSH1 0x20 ADD PUSH1 0x60 DUP2 MSTORE PUSH1 0x20 ADD PUSH1 0x60 DUP2 MSTORE PUSH1 0x20 ADD PUSH1 0x60 DUP2 MSTORE POP SWAP1 JUMP JUMPDEST DUP3 DUP1 SLOAD DUP3 DUP3 SSTORE SWAP1 PUSH1 0x0 MSTORE PUSH1 0x20 PUSH1 0x0 KECCAK256 SWAP1 DUP2 ADD SWAP3 DUP3 ISZERO PUSH2 0x18D6 JUMPI SWAP2 PUSH1 0x20 MUL DUP3 ADD JUMPDEST DUP3 DUP2 GT ISZERO PUSH2 0x18D5 JUMPI DUP3 MLOAD DUP3 SWAP1 DUP2 PUSH2 0x18C5 SWAP2 SWAP1 PUSH2 0x258A JUMP JUMPDEST POP SWAP2 PUSH1 0x20 ADD SWAP2 SWAP1 PUSH1 0x1 ADD SWAP1 PUSH2 0x18AE JUMP JUMPDEST JUMPDEST POP SWAP1 POP PUSH2 0x18E3 SWAP2 SWAP1 PUSH2 0x1945 JUMP JUMPDEST POP SWAP1 JUMP JUMPDEST PUSH1 0x40 MLOAD DUP1 PUSH2 0x120 ADD PUSH1 0x40 MSTORE DUP1 PUSH1 0x60 DUP2 MSTORE PUSH1 0x20 ADD PUSH1 0x60 DUP2 MSTORE PUSH1 0x20 ADD PUSH1 0x60 DUP2 MSTORE PUSH1 0x20 ADD PUSH1 0x60 DUP2 MSTORE PUSH1 0x20 ADD PUSH1 0x60 DUP2 MSTORE PUSH1 0x20 ADD PUSH1 0x60 DUP2 MSTORE PUSH1 0x20 ADD PUSH1 0x60 DUP2 MSTORE PUSH1 0x20 ADD PUSH1 0x60 DUP2 MSTORE PUSH1 0x20 ADD PUSH1 0x0 PUSH16 0xFFFFFFFFFFFFFFFFFFFFFFFFFFFFFFFF AND DUP2 MSTORE POP SWAP1 JUMP JUMPDEST JUMPDEST DUP1 DUP3 GT ISZERO PUSH2 0x1965 JUMPI PUSH1 0x0 DUP2 DUP2 PUSH2 0x195C SWAP2 SWAP1 PUSH2 0x1969 JUMP JUMPDEST POP PUSH1 0x1 ADD PUSH2 0x1946 JUMP JUMPDEST POP SWAP1 JUMP JUMPDEST POP DUP1 SLOAD PUSH2 0x1975 SWAP1 PUSH2 0x2374 JUMP JUMPDEST PUSH1 0x0 DUP3 SSTORE DUP1 PUSH1 0x1F LT PUSH2 0x1987 JUMPI POP PUSH2 0x19A6 JUMP JUMPDEST PUSH1 0x1F ADD PUSH1 0x20 SWAP1 DIV SWAP1 PUSH1 0x0 MSTORE PUSH1 0x20 PUSH1 0x0 KECCAK256 SWAP1 DUP2 ADD SWAP1 PUSH2 0x19A5 SWAP2 SWAP1 PUSH2 0x19A9 JUMP JUMPDEST JUMPDEST POP JUMP JUMPDEST JUMPDEST DUP1 DUP3 GT ISZERO PUSH2 0x19C2 JUMPI PUSH1 0x0 DUP2 PUSH1 0x0 SWAP1 SSTORE POP PUSH1 0x1 ADD PUSH2 0x19AA JUMP JUMPDEST POP SWAP1 JUMP JUMPDEST PUSH1 0x0 PUSH1 0x40 MLOAD SWAP1 POP SWAP1 JUMP JUMPDEST PUSH1 0x0 DUP1 REVERT JUMPDEST PUSH1 0x0 DUP1 REVERT JUMPDEST PUSH1 0x0 PUSH16 0xFFFFFFFFFFFFFFFFFFFFFFFFFFFFFFFF DUP3 AND SWAP1 POP SWAP2 SWAP1 POP JUMP JUMPDEST PUSH2 0x19FF DUP2 PUSH2 0x19DA JUMP JUMPDEST DUP2 EQ PUSH2 0x1A0A JUMPI PUSH1 0x0 DUP1 REVERT JUMPDEST POP JUMP JUMPDEST PUSH1 0x0 DUP2 CALLDATALOAD SWAP1 POP PUSH2 0x1A1C DUP2 PUSH2 0x19F6 JUMP JUMPDEST SWAP3 SWAP2 POP POP JUMP JUMPDEST PUSH1 0x0 PUSH20 0xFFFFFFFFFFFFFFFFFFFFFFFFFFFFFFFFFFFFFFFF DUP3 AND SWAP1 POP SWAP2 SWAP1 POP JUMP JUMPDEST PUSH1 0x0 PUSH2 0x1A4D DUP3 PUSH2 0x1A22 JUMP JUMPDEST SWAP1 POP SWAP2 SWAP1 POP JUMP JUMPDEST PUSH2 0x1A5D DUP2 PUSH2 0x1A42 JUMP JUMPDEST DUP2 EQ PUSH2 0x1A68 JUMPI PUSH1 0x0 DUP1 REVERT JUMPDEST POP JUMP JUMPDEST PUSH1 0x0 DUP2 CALLDATALOAD SWAP1 POP PUSH2 0x1A7A DUP2 PUSH2 0x1A54 JUMP JUMPDEST SWAP3 SWAP2 POP POP JUMP JUMPDEST PUSH1 0x0 DUP1 PUSH1 0x40 DUP4 DUP6 SUB SLT ISZERO PUSH2 0x1A97 JUMPI PUSH2 0x1A96 PUSH2 0x19D0 JUMP JUMPDEST JUMPDEST PUSH1 0x0 PUSH2 0x1AA5 DUP6 DUP3 DUP7 ADD PUSH2 0x1A0D JUMP JUMPDEST SWAP3 POP POP PUSH1 0x20 PUSH2 0x1AB6 DUP6 DUP3 DUP7 ADD PUSH2 0x1A6B JUMP JUMPDEST SWAP2 POP POP SWAP3 POP SWAP3 SWAP1 POP JUMP JUMPDEST PUSH1 0x0 DUP2 MLOAD SWAP1 POP SWAP2 SWAP1 POP JUMP JUMPDEST PUSH1 0x0 DUP3 DUP3 MSTORE PUSH1 0x20 DUP3 ADD SWAP1 POP SWAP3 SWAP2 POP POP JUMP JUMPDEST PUSH1 0x0 JUMPDEST DUP4 DUP2 LT ISZERO PUSH2 0x1AFA JUMPI DUP1 DUP3 ADD MLOAD DUP2 DUP5 ADD MSTORE PUSH1 0x20 DUP2 ADD SWAP1 POP PUSH2 0x1ADF JUMP JUMPDEST PUSH1 0x0 DUP5 DUP5 ADD MSTORE POP POP POP POP JUMP JUMPDEST PUSH1 0x0 PUSH1 0x1F NOT PUSH1 0x1F DUP4 ADD AND SWAP1 POP SWAP2 SWAP1 POP JUMP JUMPDEST PUSH1 0x0 PUSH2 0x1B22 DUP3 PUSH2 0x1AC0 JUMP JUMPDEST PUSH2 0x1B2C DUP2 DUP6 PUSH2 0x1ACB JUMP JUMPDEST SWAP4 POP PUSH2 0x1B3C DUP2 DUP6 PUSH1 0x20 DUP7 ADD PUSH2 0x1ADC JUMP JUMPDEST PUSH2 0x1B45 DUP2 PUSH2 0x1B06 JUMP JUMPDEST DUP5 ADD SWAP2 POP POP SWAP3 SWAP2 POP POP JUMP JUMPDEST PUSH1 0x0 PUSH1 0xC0 DUP4 ADD PUSH1 0x0 DUP4 ADD MLOAD DUP5 DUP3 SUB PUSH1 0x0 DUP7 ADD MSTORE PUSH2 0x1B6D DUP3 DUP3 PUSH2 0x1B17 JUMP JUMPDEST SWAP2 POP POP PUSH1 0x20 DUP4 ADD MLOAD DUP5 DUP3 SUB PUSH1 0x20 DUP7 ADD MSTORE PUSH2 0x1B87 DUP3 DUP3 PUSH2 0x1B17 JUMP JUMPDEST SWAP2 POP POP PUSH1 0x40 DUP4 ADD MLOAD DUP5 DUP3 SUB PUSH1 0x40 DUP7 ADD MSTORE PUSH2 0x1BA1 DUP3 DUP3 PUSH2 0x1B17 JUMP JUMPDEST SWAP2 POP POP PUSH1 0x60 DUP4 ADD MLOAD DUP5 DUP3 SUB PUSH1 0x60 DUP7 ADD MSTORE PUSH2 0x1BBB DUP3 DUP3 PUSH2 0x1B17 JUMP JUMPDEST SWAP2 POP POP PUSH1 0x80 DUP4 ADD MLOAD DUP5 DUP3 SUB PUSH1 0x80 DUP7 ADD MSTORE PUSH2 0x1BD5 DUP3 DUP3 PUSH2 0x1B17 JUMP JUMPDEST SWAP2 POP POP PUSH1 0xA0 DUP4 ADD MLOAD DUP5 DUP3 SUB PUSH1 0xA0 DUP7 ADD MSTORE PUSH2 0x1BEF DUP3 DUP3 PUSH2 0x1B17 JUMP JUMPDEST SWAP2 POP POP DUP1 SWAP2 POP POP SWAP3 SWAP2 POP POP JUMP JUMPDEST PUSH1 0x0 PUSH1 0x20 DUP3 ADD SWAP1 POP DUP2 DUP2 SUB PUSH1 0x0 DUP4 ADD MSTORE PUSH2 0x1C16 DUP2 DUP5 PUSH2 0x1B50 JUMP JUMPDEST SWAP1 POP SWAP3 SWAP2 POP POP JUMP JUMPDEST PUSH1 0x0 DUP1 PUSH1 0x0 PUSH1 0x60 DUP5 DUP7 SUB SLT ISZERO PUSH2 0x1C37 JUMPI PUSH2 0x1C36 PUSH2 0x19D0 JUMP JUMPDEST JUMPDEST PUSH1 0x0 PUSH2 0x1C45 DUP7 DUP3 DUP8 ADD PUSH2 0x1A6B JUMP JUMPDEST SWAP4 POP POP PUSH1 0x20 PUSH2 0x1C56 DUP7 DUP3 DUP8 ADD PUSH2 0x1A0D JUMP JUMPDEST SWAP3 POP POP PUSH1 0x40 PUSH2 0x1C67 DUP7 DUP3 DUP8 ADD PUSH2 0x1A6B JUMP JUMPDEST SWAP2 POP POP SWAP3 POP SWAP3 POP SWAP3 JUMP JUMPDEST PUSH1 0x0 PUSH1 0x20 DUP3 DUP5 SUB SLT ISZERO PUSH2 0x1C87 JUMPI PUSH2 0x1C86 PUSH2 0x19D0 JUMP JUMPDEST JUMPDEST PUSH1 0x0 PUSH2 0x1C95 DUP5 DUP3 DUP6 ADD PUSH2 0x1A6B JUMP JUMPDEST SWAP2 POP POP SWAP3 SWAP2 POP POP JUMP JUMPDEST PUSH1 0x0 DUP3 DUP3 MSTORE PUSH1 0x20 DUP3 ADD SWAP1 POP SWAP3 SWAP2 POP POP JUMP JUMPDEST PUSH1 0x0 PUSH2 0x1CBA DUP3 PUSH2 0x1AC0 JUMP JUMPDEST PUSH2 0x1CC4 DUP2 DUP6 PUSH2 0x1C9E JUMP JUMPDEST SWAP4 POP PUSH2 0x1CD4 DUP2 DUP6 PUSH1 0x20 DUP7 ADD PUSH2 0x1ADC JUMP JUMPDEST PUSH2 0x1CDD DUP2 PUSH2 0x1B06 JUMP JUMPDEST DUP5 ADD SWAP2 POP POP SWAP3 SWAP2 POP POP JUMP JUMPDEST PUSH2 0x1CF1 DUP2 PUSH2 0x19DA JUMP JUMPDEST DUP3 MSTORE POP POP JUMP JUMPDEST PUSH1 0x0 PUSH1 0x60 DUP3 ADD SWAP1 POP DUP2 DUP2 SUB PUSH1 0x0 DUP4 ADD MSTORE PUSH2 0x1D11 DUP2 DUP7 PUSH2 0x1CAF JUMP JUMPDEST SWAP1 POP DUP2 DUP2 SUB PUSH1 0x20 DUP4 ADD MSTORE PUSH2 0x1D25 DUP2 DUP6 PUSH2 0x1CAF JUMP JUMPDEST SWAP1 POP PUSH2 0x1D34 PUSH1 0x40 DUP4 ADD DUP5 PUSH2 0x1CE8 JUMP JUMPDEST SWAP5 SWAP4 POP POP POP POP JUMP JUMPDEST PUSH1 0x0 DUP1 REVERT JUMPDEST PUSH1 0x0 DUP1 REVERT JUMPDEST PUSH32 0x4E487B7100000000000000000000000000000000000000000000000000000000 PUSH1 0x0 MSTORE PUSH1 0x41 PUSH1 0x4 MSTORE PUSH1 0x24 PUSH1 0x0 REVERT JUMPDEST PUSH2 0x1D7E DUP3 PUSH2 0x1B06 JUMP JUMPDEST DUP2 ADD DUP2 DUP2 LT PUSH8 0xFFFFFFFFFFFFFFFF DUP3 GT OR ISZERO PUSH2 0x1D9D JUMPI PUSH2 0x1D9C PUSH2 0x1D46 JUMP JUMPDEST JUMPDEST DUP1 PUSH1 0x40 MSTORE POP POP POP JUMP JUMPDEST PUSH1 0x0 PUSH2 0x1DB0 PUSH2 0x19C6 JUMP JUMPDEST SWAP1 POP PUSH2 0x1DBC DUP3 DUP3 PUSH2 0x1D75 JUMP JUMPDEST SWAP2 SWAP1 POP JUMP JUMPDEST PUSH1 0x0 PUSH8 0xFFFFFFFFFFFFFFFF DUP3 GT ISZERO PUSH2 0x1DDC JUMPI PUSH2 0x1DDB PUSH2 0x1D46 JUMP JUMPDEST JUMPDEST PUSH2 0x1DE5 DUP3 PUSH2 0x1B06 JUMP JUMPDEST SWAP1 POP PUSH1 0x20 DUP2 ADD SWAP1 POP SWAP2 SWAP1 POP JUMP JUMPDEST DUP3 DUP2 DUP4 CALLDATACOPY PUSH1 0x0 DUP4 DUP4 ADD MSTORE POP POP POP JUMP JUMPDEST PUSH1 0x0 PUSH2 0x1E14 PUSH2 0x1E0F DUP5 PUSH2 0x1DC1 JUMP JUMPDEST PUSH2 0x1DA6 JUMP JUMPDEST SWAP1 POP DUP3 DUP2 MSTORE PUSH1 0x20 DUP2 ADD DUP5 DUP5 DUP5 ADD GT ISZERO PUSH2 0x1E30 JUMPI PUSH2 0x1E2F PUSH2 0x1D41 JUMP JUMPDEST JUMPDEST PUSH2 0x1E3B DUP5 DUP3 DUP6 PUSH2 0x1DF2 JUMP JUMPDEST POP SWAP4 SWAP3 POP POP POP JUMP JUMPDEST PUSH1 0x0 DUP3 PUSH1 0x1F DUP4 ADD SLT PUSH2 0x1E58 JUMPI PUSH2 0x1E57 PUSH2 0x1D3C JUMP JUMPDEST JUMPDEST DUP2 CALLDATALOAD PUSH2 0x1E68 DUP5 DUP3 PUSH1 0x20 DUP7 ADD PUSH2 0x1E01 JUMP JUMPDEST SWAP2 POP POP SWAP3 SWAP2 POP POP JUMP JUMPDEST PUSH1 0x0 PUSH8 0xFFFFFFFFFFFFFFFF DUP3 GT ISZERO PUSH2 0x1E8C JUMPI PUSH2 0x1E8B PUSH2 0x1D46 JUMP JUMPDEST JUMPDEST PUSH1 0x20 DUP3 MUL SWAP1 POP PUSH1 0x20 DUP2 ADD SWAP1 POP SWAP2 SWAP1 POP JUMP JUMPDEST PUSH1 0x0 DUP1 REVERT JUMPDEST PUSH1 0x0 PUSH2 0x1EB5 PUSH2 0x1EB0 DUP5 PUSH2 0x1E71 JUMP JUMPDEST PUSH2 0x1DA6 JUMP JUMPDEST SWAP1 POP DUP1 DUP4 DUP3 MSTORE PUSH1 0x20 DUP3 ADD SWAP1 POP PUSH1 0x20 DUP5 MUL DUP4 ADD DUP6 DUP2 GT ISZERO PUSH2 0x1ED8 JUMPI PUSH2 0x1ED7 PUSH2 0x1E9D JUMP JUMPDEST JUMPDEST DUP4 JUMPDEST DUP2 DUP2 LT ISZERO PUSH2 0x1F1F JUMPI DUP1 CALLDATALOAD PUSH8 0xFFFFFFFFFFFFFFFF DUP2 GT ISZERO PUSH2 0x1EFD JUMPI PUSH2 0x1EFC PUSH2 0x1D3C JUMP JUMPDEST JUMPDEST DUP1 DUP7 ADD PUSH2 0x1F0A DUP10 DUP3 PUSH2 0x1E43 JUMP JUMPDEST DUP6 MSTORE PUSH1 0x20 DUP6 ADD SWAP5 POP POP POP PUSH1 0x20 DUP2 ADD SWAP1 POP PUSH2 0x1EDA JUMP JUMPDEST POP POP POP SWAP4 SWAP3 POP POP POP JUMP JUMPDEST PUSH1 0x0 DUP3 PUSH1 0x1F DUP4 ADD SLT PUSH2 0x1F3E JUMPI PUSH2 0x1F3D PUSH2 0x1D3C JUMP JUMPDEST JUMPDEST DUP2 CALLDATALOAD PUSH2 0x1F4E DUP5 DUP3 PUSH1 0x20 DUP7 ADD PUSH2 0x1EA2 JUMP JUMPDEST SWAP2 POP POP SWAP3 SWAP2 POP POP JUMP JUMPDEST PUSH1 0x0 DUP1 PUSH1 0x0 DUP1 PUSH1 0x80 DUP6 DUP8 SUB SLT ISZERO PUSH2 0x1F71 JUMPI PUSH2 0x1F70 PUSH2 0x19D0 JUMP JUMPDEST JUMPDEST PUSH1 0x0 DUP6 ADD CALLDATALOAD PUSH8 0xFFFFFFFFFFFFFFFF DUP2 GT ISZERO PUSH2 0x1F8F JUMPI PUSH2 0x1F8E PUSH2 0x19D5 JUMP JUMPDEST JUMPDEST PUSH2 0x1F9B DUP8 DUP3 DUP9 ADD PUSH2 0x1E43 JUMP JUMPDEST SWAP5 POP POP PUSH1 0x20 DUP6 ADD CALLDATALOAD PUSH8 0xFFFFFFFFFFFFFFFF DUP2 GT ISZERO PUSH2 0x1FBC JUMPI PUSH2 0x1FBB PUSH2 0x19D5 JUMP JUMPDEST JUMPDEST PUSH2 0x1FC8 DUP8 DUP3 DUP9 ADD PUSH2 0x1E43 JUMP JUMPDEST SWAP4 POP POP PUSH1 0x40 PUSH2 0x1FD9 DUP8 DUP3 DUP9 ADD PUSH2 0x1A6B JUMP JUMPDEST SWAP3 POP POP PUSH1 0x60 DUP6 ADD CALLDATALOAD PUSH8 0xFFFFFFFFFFFFFFFF DUP2 GT ISZERO PUSH2 0x1FFA JUMPI PUSH2 0x1FF9 PUSH2 0x19D5 JUMP JUMPDEST JUMPDEST PUSH2 0x2006 DUP8 DUP3 DUP9 ADD PUSH2 0x1F29 JUMP JUMPDEST SWAP2 POP POP SWAP3 SWAP6 SWAP2 SWAP5 POP SWAP3 POP JUMP JUMPDEST PUSH1 0x0 DUP2 MLOAD SWAP1 POP SWAP2 SWAP1 POP JUMP JUMPDEST PUSH1 0x0 DUP3 DUP3 MSTORE PUSH1 0x20 DUP3 ADD SWAP1 POP SWAP3 SWAP2 POP POP JUMP JUMPDEST PUSH1 0x0 DUP2 SWAP1 POP PUSH1 0x20 DUP3 ADD SWAP1 POP SWAP2 SWAP1 POP JUMP JUMPDEST PUSH1 0x0 PUSH2 0x204A DUP4 DUP4 PUSH2 0x1B17 JUMP JUMPDEST SWAP1 POP SWAP3 SWAP2 POP POP JUMP JUMPDEST PUSH1 0x0 PUSH1 0x20 DUP3 ADD SWAP1 POP SWAP2 SWAP1 POP JUMP JUMPDEST PUSH1 0x0 PUSH2 0x206A DUP3 PUSH2 0x2012 JUMP JUMPDEST PUSH2 0x2074 DUP2 DUP6 PUSH2 0x201D JUMP JUMPDEST SWAP4 POP DUP4 PUSH1 0x20 DUP3 MUL DUP6 ADD PUSH2 0x2086 DUP6 PUSH2 0x202E JUMP JUMPDEST DUP1 PUSH1 0x0 JUMPDEST DUP6 DUP2 LT ISZERO PUSH2 0x20C2 JUMPI DUP5 DUP5 SUB DUP10 MSTORE DUP2 MLOAD PUSH2 0x20A3 DUP6 DUP3 PUSH2 0x203E JUMP JUMPDEST SWAP5 POP PUSH2 0x20AE DUP4 PUSH2 0x2052 JUMP JUMPDEST SWAP3 POP PUSH1 0x20 DUP11 ADD SWAP10 POP POP PUSH1 0x1 DUP2 ADD SWAP1 POP PUSH2 0x208A JUMP JUMPDEST POP DUP3 SWAP8 POP DUP8 SWAP6 POP POP POP POP POP POP SWAP3 SWAP2 POP POP JUMP JUMPDEST PUSH2 0x20DD DUP2 PUSH2 0x19DA JUMP JUMPDEST DUP3 MSTORE POP POP JUMP JUMPDEST PUSH1 0x0 PUSH2 0x120 DUP4 ADD PUSH1 0x0 DUP4 ADD MLOAD DUP5 DUP3 SUB PUSH1 0x0 DUP7 ADD MSTORE PUSH2 0x2101 DUP3 DUP3 PUSH2 0x1B17 JUMP JUMPDEST SWAP2 POP POP PUSH1 0x20 DUP4 ADD MLOAD DUP5 DUP3 SUB PUSH1 0x20 DUP7 ADD MSTORE PUSH2 0x211B DUP3 DUP3 PUSH2 0x1B17 JUMP JUMPDEST SWAP2 POP POP PUSH1 0x40 DUP4 ADD MLOAD DUP5 DUP3 SUB PUSH1 0x40 DUP7 ADD MSTORE PUSH2 0x2135 DUP3 DUP3 PUSH2 0x205F JUMP JUMPDEST SWAP2 POP POP PUSH1 0x60 DUP4 ADD MLOAD DUP5 DUP3 SUB PUSH1 0x60 DUP7 ADD MSTORE PUSH2 0x214F DUP3 DUP3 PUSH2 0x205F JUMP JUMPDEST SWAP2 POP POP PUSH1 0x80 DUP4 ADD MLOAD DUP5 DUP3 SUB PUSH1 0x80 DUP7 ADD MSTORE PUSH2 0x2169 DUP3 DUP3 PUSH2 0x205F JUMP JUMPDEST SWAP2 POP POP PUSH1 0xA0 DUP4 ADD MLOAD DUP5 DUP3 SUB PUSH1 0xA0 DUP7 ADD MSTORE PUSH2 0x2183 DUP3 DUP3 PUSH2 0x205F JUMP JUMPDEST SWAP2 POP POP PUSH1 0xC0 DUP4 ADD MLOAD DUP5 DUP3 SUB PUSH1 0xC0 DUP7 ADD MSTORE PUSH2 0x219D DUP3 DUP3 PUSH2 0x205F JUMP JUMPDEST SWAP2 POP POP PUSH1 0xE0 DUP4 ADD MLOAD DUP5 DUP3 SUB PUSH1 0xE0 DUP7 ADD MSTORE PUSH2 0x21B7 DUP3 DUP3 PUSH2 0x205F JUMP JUMPDEST SWAP2 POP POP PUSH2 0x100 DUP4 ADD MLOAD PUSH2 0x21CE PUSH2 0x100 DUP7 ADD DUP3 PUSH2 0x20D4 JUMP JUMPDEST POP DUP1 SWAP2 POP POP SWAP3 SWAP2 POP POP JUMP JUMPDEST PUSH1 0x0 PUSH1 0x20 DUP3 ADD SWAP1 POP DUP2 DUP2 SUB PUSH1 0x0 DUP4 ADD MSTORE PUSH2 0x21F3 DUP2 DUP5 PUSH2 0x20E3 JUMP JUMPDEST SWAP1 POP SWAP3 SWAP2 POP POP JUMP JUMPDEST PUSH1 0x0 DUP1 PUSH1 0x0 DUP1 PUSH1 0x0 DUP1 PUSH1 0x0 PUSH1 0xE0 DUP9 DUP11 SUB SLT ISZERO PUSH2 0x221A JUMPI PUSH2 0x2219 PUSH2 0x19D0 JUMP JUMPDEST JUMPDEST PUSH1 0x0 DUP9 ADD CALLDATALOAD PUSH8 0xFFFFFFFFFFFFFFFF DUP2 GT ISZERO PUSH2 0x2238 JUMPI PUSH2 0x2237 PUSH2 0x19D5 JUMP JUMPDEST JUMPDEST PUSH2 0x2244 DUP11 DUP3 DUP12 ADD PUSH2 0x1E43 JUMP JUMPDEST SWAP8 POP POP PUSH1 0x20 DUP9 ADD CALLDATALOAD PUSH8 0xFFFFFFFFFFFFFFFF DUP2 GT ISZERO PUSH2 0x2265 JUMPI PUSH2 0x2264 PUSH2 0x19D5 JUMP JUMPDEST JUMPDEST PUSH2 0x2271 DUP11 DUP3 DUP12 ADD PUSH2 0x1E43 JUMP JUMPDEST SWAP7 POP POP PUSH1 0x40 DUP9 ADD CALLDATALOAD PUSH8 0xFFFFFFFFFFFFFFFF DUP2 GT ISZERO PUSH2 0x2292 JUMPI PUSH2 0x2291 PUSH2 0x19D5 JUMP JUMPDEST JUMPDEST PUSH2 0x229E DUP11 DUP3 DUP12 ADD PUSH2 0x1E43 JUMP JUMPDEST SWAP6 POP POP PUSH1 0x60 DUP9 ADD CALLDATALOAD PUSH8 0xFFFFFFFFFFFFFFFF DUP2 GT ISZERO PUSH2 0x22BF JUMPI PUSH2 0x22BE PUSH2 0x19D5 JUMP JUMPDEST JUMPDEST PUSH2 0x22CB DUP11 DUP3 DUP12 ADD PUSH2 0x1E43 JUMP JUMPDEST SWAP5 POP POP PUSH1 0x80 DUP9 ADD CALLDATALOAD PUSH8 0xFFFFFFFFFFFFFFFF DUP2 GT ISZERO PUSH2 0x22EC JUMPI PUSH2 0x22EB PUSH2 0x19D5 JUMP JUMPDEST JUMPDEST PUSH2 0x22F8 DUP11 DUP3 DUP12 ADD PUSH2 0x1E43 JUMP JUMPDEST SWAP4 POP POP PUSH1 0xA0 DUP9 ADD CALLDATALOAD PUSH8 0xFFFFFFFFFFFFFFFF DUP2 GT ISZERO PUSH2 0x2319 JUMPI PUSH2 0x2318 PUSH2 0x19D5 JUMP JUMPDEST JUMPDEST PUSH2 0x2325 DUP11 DUP3 DUP12 ADD PUSH2 0x1E43 JUMP JUMPDEST SWAP3 POP POP PUSH1 0xC0 PUSH2 0x2336 DUP11 DUP3 DUP12 ADD PUSH2 0x1A6B JUMP JUMPDEST SWAP2 POP POP SWAP3 SWAP6 SWAP9 SWAP2 SWAP5 SWAP8 POP SWAP3 SWAP6 POP JUMP JUMPDEST PUSH32 0x4E487B7100000000000000000000000000000000000000000000000000000000 PUSH1 0x0 MSTORE PUSH1 0x22 PUSH1 0x4 MSTORE PUSH1 0x24 PUSH1 0x0 REVERT JUMPDEST PUSH1 0x0 PUSH1 0x2 DUP3 DIV SWAP1 POP PUSH1 0x1 DUP3 AND DUP1 PUSH2 0x238C JUMPI PUSH1 0x7F DUP3 AND SWAP2 POP JUMPDEST PUSH1 0x20 DUP3 LT DUP2 SUB PUSH2 0x239F JUMPI PUSH2 0x239E PUSH2 0x2345 JUMP JUMPDEST JUMPDEST POP SWAP2 SWAP1 POP JUMP JUMPDEST PUSH32 0x4E487B7100000000000000000000000000000000000000000000000000000000 PUSH1 0x0 MSTORE PUSH1 0x32 PUSH1 0x4 MSTORE PUSH1 0x24 PUSH1 0x0 REVERT JUMPDEST PUSH1 0x0 DUP2 SWAP1 POP DUP2 PUSH1 0x0 MSTORE PUSH1 0x20 PUSH1 0x0 KECCAK256 SWAP1 POP SWAP2 SWAP1 POP JUMP JUMPDEST PUSH1 0x0 PUSH1 0x20 PUSH1 0x1F DUP4 ADD DIV SWAP1 POP SWAP2 SWAP1 POP JUMP JUMPDEST PUSH1 0x0 DUP3 DUP3 SHL SWAP1 POP SWAP3 SWAP2 POP POP JUMP JUMPDEST PUSH1 0x0 PUSH1 0x8 DUP4 MUL PUSH2 0x2436 PUSH32 0xFFFFFFFFFFFFFFFFFFFFFFFFFFFFFFFFFFFFFFFFFFFFFFFFFFFFFFFFFFFFFFFF DUP3 PUSH2 0x23F9 JUMP JUMPDEST PUSH2 0x2440 DUP7 DUP4 PUSH2 0x23F9 JUMP JUMPDEST SWAP6 POP DUP1 NOT DUP5 AND SWAP4 POP DUP1 DUP7 AND DUP5 OR SWAP3 POP POP POP SWAP4 SWAP3 POP POP POP JUMP JUMPDEST PUSH1 0x0 DUP2 SWAP1 POP SWAP2 SWAP1 POP JUMP JUMPDEST PUSH1 0x0 DUP2 SWAP1 POP SWAP2 SWAP1 POP JUMP JUMPDEST PUSH1 0x0 PUSH2 0x2487 PUSH2 0x2482 PUSH2 0x247D DUP5 PUSH2 0x2458 JUMP JUMPDEST PUSH2 0x2462 JUMP JUMPDEST PUSH2 0x2458 JUMP JUMPDEST SWAP1 POP SWAP2 SWAP1 POP JUMP JUMPDEST PUSH1 0x0 DUP2 SWAP1 POP SWAP2 SWAP1 POP JUMP JUMPDEST PUSH2 0x24A1 DUP4 PUSH2 0x246C JUMP JUMPDEST PUSH2 0x24B5 PUSH2 0x24AD DUP3 PUSH2 0x248E JUMP JUMPDEST DUP5 DUP5 SLOAD PUSH2 0x2406 JUMP JUMPDEST DUP3 SSTORE POP POP POP POP JUMP JUMPDEST PUSH1 0x0 SWAP1 JUMP JUMPDEST PUSH2 0x24CA PUSH2 0x24BD JUMP JUMPDEST PUSH2 0x24D5 DUP2 DUP5 DUP5 PUSH2 0x2498 JUMP JUMPDEST POP POP POP JUMP JUMPDEST JUMPDEST DUP2 DUP2 LT ISZERO PUSH2 0x24F9 JUMPI PUSH2 0x24EE PUSH1 0x0 DUP3 PUSH2 0x24C2 JUMP JUMPDEST PUSH1 0x1 DUP2 ADD SWAP1 POP PUSH2 0x24DB JUMP JUMPDEST POP POP JUMP JUMPDEST PUSH1 0x1F DUP3 GT ISZERO PUSH2 0x253E JUMPI PUSH2 0x250F DUP2 PUSH2 0x23D4 JUMP JUMPDEST PUSH2 0x2518 DUP5 PUSH2 0x23E9 JUMP JUMPDEST DUP2 ADD PUSH1 0x20 DUP6 LT ISZERO PUSH2 0x2527 JUMPI DUP2 SWAP1 POP JUMPDEST PUSH2 0x253B PUSH2 0x2533 DUP6 PUSH2 0x23E9 JUMP JUMPDEST DUP4 ADD DUP3 PUSH2 0x24DA JUMP JUMPDEST POP POP JUMPDEST POP POP POP JUMP JUMPDEST PUSH1 0x0 DUP3 DUP3 SHR SWAP1 POP SWAP3 SWAP2 POP POP JUMP JUMPDEST PUSH1 0x0 PUSH2 0x2561 PUSH1 0x0 NOT DUP5 PUSH1 0x8 MUL PUSH2 0x2543 JUMP JUMPDEST NOT DUP1 DUP4 AND SWAP2 POP POP SWAP3 SWAP2 POP POP JUMP JUMPDEST PUSH1 0x0 PUSH2 0x257A DUP4 DUP4 PUSH2 0x2550 JUMP JUMPDEST SWAP2 POP DUP3 PUSH1 0x2 MUL DUP3 OR SWAP1 POP SWAP3 SWAP2 POP POP JUMP JUMPDEST PUSH2 0x2593 DUP3 PUSH2 0x1AC0 JUMP JUMPDEST PUSH8 0xFFFFFFFFFFFFFFFF DUP2 GT ISZERO PUSH2 0x25AC JUMPI PUSH2 0x25AB PUSH2 0x1D46 JUMP JUMPDEST JUMPDEST PUSH2 0x25B6 DUP3 SLOAD PUSH2 0x2374 JUMP JUMPDEST PUSH2 0x25C1 DUP3 DUP3 DUP6 PUSH2 0x24FD JUMP JUMPDEST PUSH1 0x0 PUSH1 0x20 SWAP1 POP PUSH1 0x1F DUP4 GT PUSH1 0x1 DUP2 EQ PUSH2 0x25F4 JUMPI PUSH1 0x0 DUP5 ISZERO PUSH2 0x25E2 JUMPI DUP3 DUP8 ADD MLOAD SWAP1 POP JUMPDEST PUSH2 0x25EC DUP6 DUP3 PUSH2 0x256E JUMP JUMPDEST DUP7 SSTORE POP PUSH2 0x2654 JUMP JUMPDEST PUSH1 0x1F NOT DUP5 AND PUSH2 0x2602 DUP7 PUSH2 0x23D4 JUMP JUMPDEST PUSH1 0x0 JUMPDEST DUP3 DUP2 LT ISZERO PUSH2 0x262A JUMPI DUP5 DUP10 ADD MLOAD DUP3 SSTORE PUSH1 0x1 DUP3 ADD SWAP2 POP PUSH1 0x20 DUP6 ADD SWAP5 POP PUSH1 0x20 DUP2 ADD SWAP1 POP PUSH2 0x2605 JUMP JUMPDEST DUP7 DUP4 LT ISZERO PUSH2 0x2647 JUMPI DUP5 DUP10 ADD MLOAD PUSH2 0x2643 PUSH1 0x1F DUP10 AND DUP3 PUSH2 0x2550 JUMP JUMPDEST DUP4 SSTORE POP JUMPDEST PUSH1 0x1 PUSH1 0x2 DUP9 MUL ADD DUP9 SSTORE POP POP POP JUMPDEST POP POP POP POP POP POP JUMP JUMPDEST PUSH32 0x4E487B7100000000000000000000000000000000000000000000000000000000 PUSH1 0x0 MSTORE PUSH1 0x11 PUSH1 0x4 MSTORE PUSH1 0x24 PUSH1 0x0 REVERT JUMPDEST PUSH1 0x0 PUSH2 0x2696 DUP3 PUSH2 0x19DA JUMP JUMPDEST SWAP2 POP PUSH2 0x26A1 DUP4 PUSH2 0x19DA JUMP JUMPDEST SWAP3 POP DUP3 DUP3 ADD SWAP1 POP PUSH16 0xFFFFFFFFFFFFFFFFFFFFFFFFFFFFFFFF DUP2 GT ISZERO PUSH2 0x26C9 JUMPI PUSH2 0x26C8 PUSH2 0x265C JUMP JUMPDEST JUMPDEST SWAP3 SWAP2 POP POP JUMP INVALID LOG2 PUSH5 0x6970667358 0x22 SLT KECCAK256 LOG1 PUSH12 0xC8B323CDACD030BE49B6B239 0x2F DUP16 COINBASE BLOCKHASH 0xCD AND MUL 0xAD 0x5E PUSH22 0xD34BBEEA5211EBE764736F6C63430008120033000000 "},"methodIdentifiers":{"addActivity(string,string,string,string,string,string,address)":"f64e4a70","addVolunteersToAnEventIDForANGO(address,uint128,address)":"54f32d3e","getActivities(address)":"bfee2dfa","getCompleteInformationOnAnEventUserRegisteredFor(uint128,address)":"07b32c1c","listOfNGOs(address)":"8eb5b0d3","setNGOToContract(string,string,address,string[])":"900dd950"}}}}}