{
  "_format": "hh-sol-artifact-1",
  "contractName": "SubContract",
  "sourceName": "contracts/SubContract.sol",
  "abi": [
    {
      "inputs": [
        {
          "internalType": "string",
          "name": "_name",
          "type": "string"
        },
        {
          "internalType": "string",
          "name": "_shiftStartTime",
          "type": "string"
        },
        {
          "internalType": "string",
          "name": "_shiftEndTime",
          "type": "string"
        },
        {
          "internalType": "string",
          "name": "_startDate",
          "type": "string"
        },
        {
          "internalType": "string",
          "name": "_endDate",
          "type": "string"
        },
        {
          "internalType": "string",
          "name": "_location",
          "type": "string"
        },
        {
          "internalType": "address",
          "name": "_NGOAddress",
          "type": "address"
        }
      ],
      "name": "addActivity",
      "outputs": [],
      "stateMutability": "nonpayable",
      "type": "function"
    },
    {
      "inputs": [
        {
          "internalType": "address",
          "name": "_NGOAddress",
          "type": "address"
        },
        {
          "internalType": "uint128",
          "name": "_eventID",
          "type": "uint128"
        },
        {
          "internalType": "address",
          "name": "_volunteerAddress",
          "type": "address"
        }
      ],
      "name": "addVolunteersToAnEventIDForANGO",
      "outputs": [],
      "stateMutability": "nonpayable",
      "type": "function"
    },
    {
      "inputs": [
        {
          "internalType": "address",
          "name": "_NGOAddress",
          "type": "address"
        }
      ],
      "name": "getActivities",
      "outputs": [
        {
          "components": [
            {
              "internalType": "string",
              "name": "name",
              "type": "string"
            },
            {
              "internalType": "string",
              "name": "location",
              "type": "string"
            },
            {
              "internalType": "string[]",
              "name": "eventName",
              "type": "string[]"
            },
            {
              "internalType": "string[]",
              "name": "eventLocation",
              "type": "string[]"
            },
            {
              "internalType": "string[]",
              "name": "shiftStartTime",
              "type": "string[]"
            },
            {
              "internalType": "string[]",
              "name": "shiftEndTime",
              "type": "string[]"
            },
            {
              "internalType": "string[]",
              "name": "startDate",
              "type": "string[]"
            },
            {
              "internalType": "string[]",
              "name": "endDate",
              "type": "string[]"
            },
            {
              "internalType": "uint128",
              "name": "lastEventCounter",
              "type": "uint128"
            }
          ],
          "internalType": "struct SubContract.NGODetails",
          "name": "",
          "type": "tuple"
        }
      ],
      "stateMutability": "view",
      "type": "function"
    },
    {
      "inputs": [
        {
          "internalType": "uint128",
          "name": "_eventID",
          "type": "uint128"
        },
        {
          "internalType": "address",
          "name": "_NGOAddress",
          "type": "address"
        }
      ],
      "name": "getCompleteInformationOnAnEventUserRegisteredFor",
      "outputs": [
        {
          "components": [
            {
              "internalType": "string",
              "name": "eventName",
              "type": "string"
            },
            {
              "internalType": "string",
              "name": "eventLocation",
              "type": "string"
            },
            {
              "internalType": "string",
              "name": "shiftStartTime",
              "type": "string"
            },
            {
              "internalType": "string",
              "name": "shiftEndTime",
              "type": "string"
            },
            {
              "internalType": "string",
              "name": "startDate",
              "type": "string"
            },
            {
              "internalType": "string",
              "name": "endDate",
              "type": "string"
            }
          ],
          "internalType": "struct SubContract.eventDetails",
          "name": "",
          "type": "tuple"
        }
      ],
      "stateMutability": "view",
      "type": "function"
    },
    {
      "inputs": [
        {
          "internalType": "address",
          "name": "",
          "type": "address"
        }
      ],
      "name": "listOfNGOs",
      "outputs": [
        {
          "internalType": "string",
          "name": "name",
          "type": "string"
        },
        {
          "internalType": "string",
          "name": "location",
          "type": "string"
        },
        {
          "internalType": "uint128",
          "name": "lastEventCounter",
          "type": "uint128"
        }
      ],
      "stateMutability": "view",
      "type": "function"
    },
    {
      "inputs": [
        {
          "internalType": "string",
          "name": "_name",
          "type": "string"
        },
        {
          "internalType": "string",
          "name": "_location",
          "type": "string"
        },
        {
          "internalType": "address",
          "name": "_NGOAddress",
          "type": "address"
        },
        {
          "internalType": "string[]",
          "name": "_temporary",
          "type": "string[]"
        }
      ],
      "name": "setNGOToContract",
      "outputs": [],
      "stateMutability": "nonpayable",
      "type": "function"
    }
  ],
  "bytecode": "0x608060405234801561001057600080fd5b50612705806100206000396000f3fe608060405234801561001057600080fd5b50600436106100625760003560e01c806307b32c1c1461006757806354f32d3e146100975780638eb5b0d3146100b3578063900dd950146100e5578063bfee2dfa14610101578063f64e4a7014610131575b600080fd5b610081600480360381019061007c9190611a80565b61014d565b60405161008e9190611bfc565b60405180910390f35b6100b160048036038101906100ac9190611c1e565b610984565b005b6100cd60048036038101906100c89190611c71565b610a5e565b6040516100dc93929190611cf7565b60405180910390f35b6100ff60048036038101906100fa9190611f57565b610bb4565b005b61011b60048036038101906101169190611c71565b610d69565b60405161012891906121d9565b60405180910390f35b61014b600480360381019061014691906121fb565b611447565b005b610155611858565b6000600260008473ffffffffffffffffffffffffffffffffffffffff1673ffffffffffffffffffffffffffffffffffffffff168152602001908152602001600020604051806101200160405290816000820180546101b290612374565b80601f01602080910402602001604051908101604052809291908181526020018280546101de90612374565b801561022b5780601f106102005761010080835404028352916020019161022b565b820191906000526020600020905b81548152906001019060200180831161020e57829003601f168201915b5050505050815260200160018201805461024490612374565b80601f016020809104026020016040519081016040528092919081815260200182805461027090612374565b80156102bd5780601f10610292576101008083540402835291602001916102bd565b820191906000526020600020905b8154815290600101906020018083116102a057829003601f168201915b5050505050815260200160028201805480602002602001604051908101604052809291908181526020016000905b8282101561039757838290600052602060002001805461030a90612374565b80601f016020809104026020016040519081016040528092919081815260200182805461033690612374565b80156103835780601f1061035857610100808354040283529160200191610383565b820191906000526020600020905b81548152906001019060200180831161036657829003601f168201915b5050505050815260200190600101906102eb565b50505050815260200160038201805480602002602001604051908101604052809291908181526020016000905b828210156104705783829060005260206000200180546103e390612374565b80601f016020809104026020016040519081016040528092919081815260200182805461040f90612374565b801561045c5780601f106104315761010080835404028352916020019161045c565b820191906000526020600020905b81548152906001019060200180831161043f57829003601f168201915b5050505050815260200190600101906103c4565b50505050815260200160048201805480602002602001604051908101604052809291908181526020016000905b828210156105495783829060005260206000200180546104bc90612374565b80601f01602080910402602001604051908101604052809291908181526020018280546104e890612374565b80156105355780601f1061050a57610100808354040283529160200191610535565b820191906000526020600020905b81548152906001019060200180831161051857829003601f168201915b50505050508152602001906001019061049d565b50505050815260200160058201805480602002602001604051908101604052809291908181526020016000905b8282101561062257838290600052602060002001805461059590612374565b80601f01602080910402602001604051908101604052809291908181526020018280546105c190612374565b801561060e5780601f106105e35761010080835404028352916020019161060e565b820191906000526020600020905b8154815290600101906020018083116105f157829003601f168201915b505050505081526020019060010190610576565b50505050815260200160068201805480602002602001604051908101604052809291908181526020016000905b828210156106fb57838290600052602060002001805461066e90612374565b80601f016020809104026020016040519081016040528092919081815260200182805461069a90612374565b80156106e75780601f106106bc576101008083540402835291602001916106e7565b820191906000526020600020905b8154815290600101906020018083116106ca57829003601f168201915b50505050508152602001906001019061064f565b50505050815260200160078201805480602002602001604051908101604052809291908181526020016000905b828210156107d457838290600052602060002001805461074790612374565b80601f016020809104026020016040519081016040528092919081815260200182805461077390612374565b80156107c05780601f10610795576101008083540402835291602001916107c0565b820191906000526020600020905b8154815290600101906020018083116107a357829003601f168201915b505050505081526020019060010190610728565b5050505081526020016008820160009054906101000a90046fffffffffffffffffffffffffffffffff166fffffffffffffffffffffffffffffffff166fffffffffffffffffffffffffffffffff1681525050905060006040518060c001604052808360400151876fffffffffffffffffffffffffffffffff168151811061085e5761085d6123a5565b5b602002602001015181526020018360600151876fffffffffffffffffffffffffffffffff1681518110610894576108936123a5565b5b602002602001015181526020018360800151876fffffffffffffffffffffffffffffffff16815181106108ca576108c96123a5565b5b602002602001015181526020018360a00151876fffffffffffffffffffffffffffffffff1681518110610900576108ff6123a5565b5b602002602001015181526020018360c00151876fffffffffffffffffffffffffffffffff1681518110610936576109356123a5565b5b602002602001015181526020018360e00151876fffffffffffffffffffffffffffffffff168151811061096c5761096b6123a5565b5b60200260200101518152509050809250505092915050565b600160008473ffffffffffffffffffffffffffffffffffffffff1673ffffffffffffffffffffffffffffffffffffffff1681526020019081526020016000206000836fffffffffffffffffffffffffffffffff166fffffffffffffffffffffffffffffffff168152602001908152602001600020819080600181540180825580915050600190039060005260206000200160009091909190916101000a81548173ffffffffffffffffffffffffffffffffffffffff021916908373ffffffffffffffffffffffffffffffffffffffff160217905550505050565b6002602052806000526040600020600091509050806000018054610a8190612374565b80601f0160208091040260200160405190810160405280929190818152602001828054610aad90612374565b8015610afa5780601f10610acf57610100808354040283529160200191610afa565b820191906000526020600020905b815481529060010190602001808311610add57829003601f168201915b505050505090806001018054610b0f90612374565b80601f0160208091040260200160405190810160405280929190818152602001828054610b3b90612374565b8015610b885780601f10610b5d57610100808354040283529160200191610b88565b820191906000526020600020905b815481529060010190602001808311610b6b57829003601f168201915b5050505050908060080160009054906101000a90046fffffffffffffffffffffffffffffffff16905083565b60405180610120016040528085815260200184815260200182815260200182815260200182815260200182815260200182815260200182815260200160006fffffffffffffffffffffffffffffffff16815250600260008473ffffffffffffffffffffffffffffffffffffffff1673ffffffffffffffffffffffffffffffffffffffff1681526020019081526020016000206000820151816000019081610c5b919061258a565b506020820151816001019081610c71919061258a565b506040820151816002019080519060200190610c8e92919061188e565b506060820151816003019080519060200190610cab92919061188e565b506080820151816004019080519060200190610cc892919061188e565b5060a0820151816005019080519060200190610ce592919061188e565b5060c0820151816006019080519060200190610d0292919061188e565b5060e0820151816007019080519060200190610d1f92919061188e565b506101008201518160080160006101000a8154816fffffffffffffffffffffffffffffffff02191690836fffffffffffffffffffffffffffffffff16021790555090505050505050565b610d716118e7565b600260008373ffffffffffffffffffffffffffffffffffffffff1673ffffffffffffffffffffffffffffffffffffffff16815260200190815260200160002060405180610120016040529081600082018054610dcc90612374565b80601f0160208091040260200160405190810160405280929190818152602001828054610df890612374565b8015610e455780601f10610e1a57610100808354040283529160200191610e45565b820191906000526020600020905b815481529060010190602001808311610e2857829003601f168201915b50505050508152602001600182018054610e5e90612374565b80601f0160208091040260200160405190810160405280929190818152602001828054610e8a90612374565b8015610ed75780601f10610eac57610100808354040283529160200191610ed7565b820191906000526020600020905b815481529060010190602001808311610eba57829003601f168201915b5050505050815260200160028201805480602002602001604051908101604052809291908181526020016000905b82821015610fb1578382906000526020600020018054610f2490612374565b80601f0160208091040260200160405190810160405280929190818152602001828054610f5090612374565b8015610f9d5780601f10610f7257610100808354040283529160200191610f9d565b820191906000526020600020905b815481529060010190602001808311610f8057829003601f168201915b505050505081526020019060010190610f05565b50505050815260200160038201805480602002602001604051908101604052809291908181526020016000905b8282101561108a578382906000526020600020018054610ffd90612374565b80601f016020809104026020016040519081016040528092919081815260200182805461102990612374565b80156110765780601f1061104b57610100808354040283529160200191611076565b820191906000526020600020905b81548152906001019060200180831161105957829003601f168201915b505050505081526020019060010190610fde565b50505050815260200160048201805480602002602001604051908101604052809291908181526020016000905b828210156111635783829060005260206000200180546110d690612374565b80601f016020809104026020016040519081016040528092919081815260200182805461110290612374565b801561114f5780601f106111245761010080835404028352916020019161114f565b820191906000526020600020905b81548152906001019060200180831161113257829003601f168201915b5050505050815260200190600101906110b7565b50505050815260200160058201805480602002602001604051908101604052809291908181526020016000905b8282101561123c5783829060005260206000200180546111af90612374565b80601f01602080910402602001604051908101604052809291908181526020018280546111db90612374565b80156112285780601f106111fd57610100808354040283529160200191611228565b820191906000526020600020905b81548152906001019060200180831161120b57829003601f168201915b505050505081526020019060010190611190565b50505050815260200160068201805480602002602001604051908101604052809291908181526020016000905b8282101561131557838290600052602060002001805461128890612374565b80601f01602080910402602001604051908101604052809291908181526020018280546112b490612374565b80156113015780601f106112d657610100808354040283529160200191611301565b820191906000526020600020905b8154815290600101906020018083116112e457829003601f168201915b505050505081526020019060010190611269565b50505050815260200160078201805480602002602001604051908101604052809291908181526020016000905b828210156113ee57838290600052602060002001805461136190612374565b80601f016020809104026020016040519081016040528092919081815260200182805461138d90612374565b80156113da5780601f106113af576101008083540402835291602001916113da565b820191906000526020600020905b8154815290600101906020018083116113bd57829003601f168201915b505050505081526020019060010190611342565b5050505081526020016008820160009054906101000a90046fffffffffffffffffffffffffffffffff166fffffffffffffffffffffffffffffffff166fffffffffffffffffffffffffffffffff16815250509050919050565b6000600260008373ffffffffffffffffffffffffffffffffffffffff1673ffffffffffffffffffffffffffffffffffffffff16815260200190815260200160002060080160009054906101000a90046fffffffffffffffffffffffffffffffff16905087600260008473ffffffffffffffffffffffffffffffffffffffff1673ffffffffffffffffffffffffffffffffffffffff168152602001908152602001600020600201826fffffffffffffffffffffffffffffffff1681548110611511576115106123a5565b5b906000526020600020019081611527919061258a565b5082600260008473ffffffffffffffffffffffffffffffffffffffff1673ffffffffffffffffffffffffffffffffffffffff168152602001908152602001600020600301826fffffffffffffffffffffffffffffffff168154811061158f5761158e6123a5565b5b9060005260206000200190816115a5919061258a565b5086600260008473ffffffffffffffffffffffffffffffffffffffff1673ffffffffffffffffffffffffffffffffffffffff168152602001908152602001600020600401826fffffffffffffffffffffffffffffffff168154811061160d5761160c6123a5565b5b906000526020600020019081611623919061258a565b5085600260008473ffffffffffffffffffffffffffffffffffffffff1673ffffffffffffffffffffffffffffffffffffffff168152602001908152602001600020600501826fffffffffffffffffffffffffffffffff168154811061168b5761168a6123a5565b5b9060005260206000200190816116a1919061258a565b5084600260008473ffffffffffffffffffffffffffffffffffffffff1673ffffffffffffffffffffffffffffffffffffffff168152602001908152602001600020600601826fffffffffffffffffffffffffffffffff1681548110611709576117086123a5565b5b90600052602060002001908161171f919061258a565b5083600260008473ffffffffffffffffffffffffffffffffffffffff1673ffffffffffffffffffffffffffffffffffffffff168152602001908152602001600020600701826fffffffffffffffffffffffffffffffff1681548110611787576117866123a5565b5b90600052602060002001908161179d919061258a565b506117a7826117b1565b5050505050505050565b6001600260008373ffffffffffffffffffffffffffffffffffffffff1673ffffffffffffffffffffffffffffffffffffffff16815260200190815260200160002060080160008282829054906101000a90046fffffffffffffffffffffffffffffffff1661181f919061268b565b92506101000a8154816fffffffffffffffffffffffffffffffff02191690836fffffffffffffffffffffffffffffffff16021790555050565b6040518060c001604052806060815260200160608152602001606081526020016060815260200160608152602001606081525090565b8280548282559060005260206000209081019282156118d6579160200282015b828111156118d55782518290816118c5919061258a565b50916020019190600101906118ae565b5b5090506118e39190611945565b5090565b604051806101200160405280606081526020016060815260200160608152602001606081526020016060815260200160608152602001606081526020016060815260200160006fffffffffffffffffffffffffffffffff1681525090565b5b80821115611965576000818161195c9190611969565b50600101611946565b5090565b50805461197590612374565b6000825580601f1061198757506119a6565b601f0160209004906000526020600020908101906119a591906119a9565b5b50565b5b808211156119c25760008160009055506001016119aa565b5090565b6000604051905090565b600080fd5b600080fd5b60006fffffffffffffffffffffffffffffffff82169050919050565b6119ff816119da565b8114611a0a57600080fd5b50565b600081359050611a1c816119f6565b92915050565b600073ffffffffffffffffffffffffffffffffffffffff82169050919050565b6000611a4d82611a22565b9050919050565b611a5d81611a42565b8114611a6857600080fd5b50565b600081359050611a7a81611a54565b92915050565b60008060408385031215611a9757611a966119d0565b5b6000611aa585828601611a0d565b9250506020611ab685828601611a6b565b9150509250929050565b600081519050919050565b600082825260208201905092915050565b60005b83811015611afa578082015181840152602081019050611adf565b60008484015250505050565b6000601f19601f8301169050919050565b6000611b2282611ac0565b611b2c8185611acb565b9350611b3c818560208601611adc565b611b4581611b06565b840191505092915050565b600060c0830160008301518482036000860152611b6d8282611b17565b91505060208301518482036020860152611b878282611b17565b91505060408301518482036040860152611ba18282611b17565b91505060608301518482036060860152611bbb8282611b17565b91505060808301518482036080860152611bd58282611b17565b91505060a083015184820360a0860152611bef8282611b17565b9150508091505092915050565b60006020820190508181036000830152611c168184611b50565b905092915050565b600080600060608486031215611c3757611c366119d0565b5b6000611c4586828701611a6b565b9350506020611c5686828701611a0d565b9250506040611c6786828701611a6b565b9150509250925092565b600060208284031215611c8757611c866119d0565b5b6000611c9584828501611a6b565b91505092915050565b600082825260208201905092915050565b6000611cba82611ac0565b611cc48185611c9e565b9350611cd4818560208601611adc565b611cdd81611b06565b840191505092915050565b611cf1816119da565b82525050565b60006060820190508181036000830152611d118186611caf565b90508181036020830152611d258185611caf565b9050611d346040830184611ce8565b949350505050565b600080fd5b600080fd5b7f4e487b7100000000000000000000000000000000000000000000000000000000600052604160045260246000fd5b611d7e82611b06565b810181811067ffffffffffffffff82111715611d9d57611d9c611d46565b5b80604052505050565b6000611db06119c6565b9050611dbc8282611d75565b919050565b600067ffffffffffffffff821115611ddc57611ddb611d46565b5b611de582611b06565b9050602081019050919050565b82818337600083830152505050565b6000611e14611e0f84611dc1565b611da6565b905082815260208101848484011115611e3057611e2f611d41565b5b611e3b848285611df2565b509392505050565b600082601f830112611e5857611e57611d3c565b5b8135611e68848260208601611e01565b91505092915050565b600067ffffffffffffffff821115611e8c57611e8b611d46565b5b602082029050602081019050919050565b600080fd5b6000611eb5611eb084611e71565b611da6565b90508083825260208201905060208402830185811115611ed857611ed7611e9d565b5b835b81811015611f1f57803567ffffffffffffffff811115611efd57611efc611d3c565b5b808601611f0a8982611e43565b85526020850194505050602081019050611eda565b5050509392505050565b600082601f830112611f3e57611f3d611d3c565b5b8135611f4e848260208601611ea2565b91505092915050565b60008060008060808587031215611f7157611f706119d0565b5b600085013567ffffffffffffffff811115611f8f57611f8e6119d5565b5b611f9b87828801611e43565b945050602085013567ffffffffffffffff811115611fbc57611fbb6119d5565b5b611fc887828801611e43565b9350506040611fd987828801611a6b565b925050606085013567ffffffffffffffff811115611ffa57611ff96119d5565b5b61200687828801611f29565b91505092959194509250565b600081519050919050565b600082825260208201905092915050565b6000819050602082019050919050565b600061204a8383611b17565b905092915050565b6000602082019050919050565b600061206a82612012565b612074818561201d565b9350836020820285016120868561202e565b8060005b858110156120c257848403895281516120a3858261203e565b94506120ae83612052565b925060208a0199505060018101905061208a565b50829750879550505050505092915050565b6120dd816119da565b82525050565b60006101208301600083015184820360008601526121018282611b17565b9150506020830151848203602086015261211b8282611b17565b91505060408301518482036040860152612135828261205f565b9150506060830151848203606086015261214f828261205f565b91505060808301518482036080860152612169828261205f565b91505060a083015184820360a0860152612183828261205f565b91505060c083015184820360c086015261219d828261205f565b91505060e083015184820360e08601526121b7828261205f565b9150506101008301516121ce6101008601826120d4565b508091505092915050565b600060208201905081810360008301526121f381846120e3565b905092915050565b600080600080600080600060e0888a03121561221a576122196119d0565b5b600088013567ffffffffffffffff811115612238576122376119d5565b5b6122448a828b01611e43565b975050602088013567ffffffffffffffff811115612265576122646119d5565b5b6122718a828b01611e43565b965050604088013567ffffffffffffffff811115612292576122916119d5565b5b61229e8a828b01611e43565b955050606088013567ffffffffffffffff8111156122bf576122be6119d5565b5b6122cb8a828b01611e43565b945050608088013567ffffffffffffffff8111156122ec576122eb6119d5565b5b6122f88a828b01611e43565b93505060a088013567ffffffffffffffff811115612319576123186119d5565b5b6123258a828b01611e43565b92505060c06123368a828b01611a6b565b91505092959891949750929550565b7f4e487b7100000000000000000000000000000000000000000000000000000000600052602260045260246000fd5b6000600282049050600182168061238c57607f821691505b60208210810361239f5761239e612345565b5b50919050565b7f4e487b7100000000000000000000000000000000000000000000000000000000600052603260045260246000fd5b60008190508160005260206000209050919050565b60006020601f8301049050919050565b600082821b905092915050565b6000600883026124367fffffffffffffffffffffffffffffffffffffffffffffffffffffffffffffffff826123f9565b61244086836123f9565b95508019841693508086168417925050509392505050565b6000819050919050565b6000819050919050565b600061248761248261247d84612458565b612462565b612458565b9050919050565b6000819050919050565b6124a18361246c565b6124b56124ad8261248e565b848454612406565b825550505050565b600090565b6124ca6124bd565b6124d5818484612498565b505050565b5b818110156124f9576124ee6000826124c2565b6001810190506124db565b5050565b601f82111561253e5761250f816123d4565b612518846123e9565b81016020851015612527578190505b61253b612533856123e9565b8301826124da565b50505b505050565b600082821c905092915050565b600061256160001984600802612543565b1980831691505092915050565b600061257a8383612550565b9150826002028217905092915050565b61259382611ac0565b67ffffffffffffffff8111156125ac576125ab611d46565b5b6125b68254612374565b6125c18282856124fd565b600060209050601f8311600181146125f457600084156125e2578287015190505b6125ec858261256e565b865550612654565b601f198416612602866123d4565b60005b8281101561262a57848901518255600182019150602085019450602081019050612605565b868310156126475784890151612643601f891682612550565b8355505b6001600288020188555050505b505050505050565b7f4e487b7100000000000000000000000000000000000000000000000000000000600052601160045260246000fd5b6000612696826119da565b91506126a1836119da565b925082820190506fffffffffffffffffffffffffffffffff8111156126c9576126c861265c565b5b9291505056fea2646970667358221220a16bc8b323cdacd030be49b6b2392f8f4140cd1602ad5e75d34bbeea5211ebe764736f6c63430008120033",
  "linkReferences": {},
  "deployedLinkReferences": {}
}